{
  "contractName": "NftMarket",
  "abi": [
    {
      "inputs": [],
      "stateMutability": "nonpayable",
      "type": "constructor"
    },
    {
      "anonymous": false,
      "inputs": [
        {
          "indexed": true,
          "internalType": "address",
          "name": "owner",
          "type": "address"
        },
        {
          "indexed": true,
          "internalType": "address",
          "name": "approved",
          "type": "address"
        },
        {
          "indexed": true,
          "internalType": "uint256",
          "name": "tokenId",
          "type": "uint256"
        }
      ],
      "name": "Approval",
      "type": "event"
    },
    {
      "anonymous": false,
      "inputs": [
        {
          "indexed": true,
          "internalType": "address",
          "name": "owner",
          "type": "address"
        },
        {
          "indexed": true,
          "internalType": "address",
          "name": "operator",
          "type": "address"
        },
        {
          "indexed": false,
          "internalType": "bool",
          "name": "approved",
          "type": "bool"
        }
      ],
      "name": "ApprovalForAll",
      "type": "event"
    },
    {
      "anonymous": false,
      "inputs": [
        {
          "indexed": false,
          "internalType": "uint256",
          "name": "tokenId",
          "type": "uint256"
        },
        {
          "indexed": false,
          "internalType": "uint256",
          "name": "price",
          "type": "uint256"
        },
        {
          "indexed": false,
          "internalType": "address",
          "name": "creator",
          "type": "address"
        },
        {
          "indexed": false,
          "internalType": "bool",
          "name": "isListed",
          "type": "bool"
        }
      ],
      "name": "NftItemCreated",
      "type": "event"
    },
    {
      "anonymous": false,
      "inputs": [
        {
          "indexed": true,
          "internalType": "address",
          "name": "previousOwner",
          "type": "address"
        },
        {
          "indexed": true,
          "internalType": "address",
          "name": "newOwner",
          "type": "address"
        }
      ],
      "name": "OwnershipTransferred",
      "type": "event"
    },
    {
      "anonymous": false,
      "inputs": [
        {
          "indexed": false,
          "internalType": "address",
          "name": "sender",
          "type": "address"
        }
      ],
      "name": "TestMessSender",
      "type": "event"
    },
    {
      "anonymous": false,
      "inputs": [
        {
          "indexed": true,
          "internalType": "address",
          "name": "from",
          "type": "address"
        },
        {
          "indexed": true,
          "internalType": "address",
          "name": "to",
          "type": "address"
        },
        {
          "indexed": true,
          "internalType": "uint256",
          "name": "tokenId",
          "type": "uint256"
        }
      ],
      "name": "Transfer",
      "type": "event"
    },
    {
      "inputs": [
        {
          "internalType": "address",
          "name": "to",
          "type": "address"
        },
        {
          "internalType": "uint256",
          "name": "tokenId",
          "type": "uint256"
        }
      ],
      "name": "approve",
      "outputs": [],
      "stateMutability": "nonpayable",
      "type": "function"
    },
    {
      "inputs": [
        {
          "internalType": "address",
          "name": "owner",
          "type": "address"
        }
      ],
      "name": "balanceOf",
      "outputs": [
        {
          "internalType": "uint256",
          "name": "",
          "type": "uint256"
        }
      ],
      "stateMutability": "view",
      "type": "function",
      "constant": true
    },
    {
      "inputs": [
        {
          "internalType": "uint256",
          "name": "tokenId",
          "type": "uint256"
        }
      ],
      "name": "getApproved",
      "outputs": [
        {
          "internalType": "address",
          "name": "",
          "type": "address"
        }
      ],
      "stateMutability": "view",
      "type": "function",
      "constant": true
    },
    {
      "inputs": [
        {
          "internalType": "address",
          "name": "owner",
          "type": "address"
        },
        {
          "internalType": "address",
          "name": "operator",
          "type": "address"
        }
      ],
      "name": "isApprovedForAll",
      "outputs": [
        {
          "internalType": "bool",
          "name": "",
          "type": "bool"
        }
      ],
      "stateMutability": "view",
      "type": "function",
      "constant": true
    },
    {
      "inputs": [],
      "name": "listingPrice",
      "outputs": [
        {
          "internalType": "uint256",
          "name": "",
          "type": "uint256"
        }
      ],
      "stateMutability": "view",
      "type": "function",
      "constant": true
    },
    {
      "inputs": [],
      "name": "name",
      "outputs": [
        {
          "internalType": "string",
          "name": "",
          "type": "string"
        }
      ],
      "stateMutability": "view",
      "type": "function",
      "constant": true
    },
    {
      "inputs": [],
      "name": "owner",
      "outputs": [
        {
          "internalType": "address",
          "name": "",
          "type": "address"
        }
      ],
      "stateMutability": "view",
      "type": "function",
      "constant": true
    },
    {
      "inputs": [
        {
          "internalType": "uint256",
          "name": "tokenId",
          "type": "uint256"
        }
      ],
      "name": "ownerOf",
      "outputs": [
        {
          "internalType": "address",
          "name": "",
          "type": "address"
        }
      ],
      "stateMutability": "view",
      "type": "function",
      "constant": true
    },
    {
      "inputs": [],
      "name": "renounceOwnership",
      "outputs": [],
      "stateMutability": "nonpayable",
      "type": "function"
    },
    {
      "inputs": [
        {
          "internalType": "address",
          "name": "from",
          "type": "address"
        },
        {
          "internalType": "address",
          "name": "to",
          "type": "address"
        },
        {
          "internalType": "uint256",
          "name": "tokenId",
          "type": "uint256"
        }
      ],
      "name": "safeTransferFrom",
      "outputs": [],
      "stateMutability": "nonpayable",
      "type": "function"
    },
    {
      "inputs": [
        {
          "internalType": "address",
          "name": "from",
          "type": "address"
        },
        {
          "internalType": "address",
          "name": "to",
          "type": "address"
        },
        {
          "internalType": "uint256",
          "name": "tokenId",
          "type": "uint256"
        },
        {
          "internalType": "bytes",
          "name": "data",
          "type": "bytes"
        }
      ],
      "name": "safeTransferFrom",
      "outputs": [],
      "stateMutability": "nonpayable",
      "type": "function"
    },
    {
      "inputs": [
        {
          "internalType": "address",
          "name": "operator",
          "type": "address"
        },
        {
          "internalType": "bool",
          "name": "approved",
          "type": "bool"
        }
      ],
      "name": "setApprovalForAll",
      "outputs": [],
      "stateMutability": "nonpayable",
      "type": "function"
    },
    {
      "inputs": [
        {
          "internalType": "bytes4",
          "name": "interfaceId",
          "type": "bytes4"
        }
      ],
      "name": "supportsInterface",
      "outputs": [
        {
          "internalType": "bool",
          "name": "",
          "type": "bool"
        }
      ],
      "stateMutability": "view",
      "type": "function",
      "constant": true
    },
    {
      "inputs": [],
      "name": "symbol",
      "outputs": [
        {
          "internalType": "string",
          "name": "",
          "type": "string"
        }
      ],
      "stateMutability": "view",
      "type": "function",
      "constant": true
    },
    {
      "inputs": [
        {
          "internalType": "uint256",
          "name": "tokenId",
          "type": "uint256"
        }
      ],
      "name": "tokenURI",
      "outputs": [
        {
          "internalType": "string",
          "name": "",
          "type": "string"
        }
      ],
      "stateMutability": "view",
      "type": "function",
      "constant": true
    },
    {
      "inputs": [
        {
          "internalType": "address",
          "name": "from",
          "type": "address"
        },
        {
          "internalType": "address",
          "name": "to",
          "type": "address"
        },
        {
          "internalType": "uint256",
          "name": "tokenId",
          "type": "uint256"
        }
      ],
      "name": "transferFrom",
      "outputs": [],
      "stateMutability": "nonpayable",
      "type": "function"
    },
    {
      "inputs": [
        {
          "internalType": "address",
          "name": "newOwner",
          "type": "address"
        }
      ],
      "name": "transferOwnership",
      "outputs": [],
      "stateMutability": "nonpayable",
      "type": "function"
    },
    {
      "inputs": [
        {
          "internalType": "uint256",
          "name": "newPrice",
          "type": "uint256"
        }
      ],
      "name": "setListingPrice",
      "outputs": [],
      "stateMutability": "nonpayable",
      "type": "function"
    },
    {
      "inputs": [
        {
          "internalType": "uint256",
          "name": "tokenId",
          "type": "uint256"
        }
      ],
      "name": "getNftItem",
      "outputs": [
        {
          "components": [
            {
              "internalType": "uint256",
              "name": "tokenId",
              "type": "uint256"
            },
            {
              "internalType": "uint256",
              "name": "price",
              "type": "uint256"
            },
            {
              "internalType": "address",
              "name": "creator",
              "type": "address"
            },
            {
              "internalType": "bool",
              "name": "isListed",
              "type": "bool"
            }
          ],
          "internalType": "struct NftMarket.NftItem",
          "name": "",
          "type": "tuple"
        }
      ],
      "stateMutability": "view",
      "type": "function",
      "constant": true
    },
    {
      "inputs": [],
      "name": "listedItemsCount",
      "outputs": [
        {
          "internalType": "uint256",
          "name": "",
          "type": "uint256"
        }
      ],
      "stateMutability": "view",
      "type": "function",
      "constant": true
    },
    {
      "inputs": [
        {
          "internalType": "string",
          "name": "tokenURI",
          "type": "string"
        }
      ],
      "name": "tokenURIExists",
      "outputs": [
        {
          "internalType": "bool",
          "name": "",
          "type": "bool"
        }
      ],
      "stateMutability": "view",
      "type": "function",
      "constant": true
    },
    {
      "inputs": [],
      "name": "totalSupply",
      "outputs": [
        {
          "internalType": "uint256",
          "name": "",
          "type": "uint256"
        }
      ],
      "stateMutability": "view",
      "type": "function",
      "constant": true
    },
    {
      "inputs": [
        {
          "internalType": "uint256",
          "name": "index",
          "type": "uint256"
        }
      ],
      "name": "tokenByIndex",
      "outputs": [
        {
          "internalType": "uint256",
          "name": "",
          "type": "uint256"
        }
      ],
      "stateMutability": "view",
      "type": "function",
      "constant": true
    },
    {
      "inputs": [
        {
          "internalType": "address",
          "name": "owner",
          "type": "address"
        },
        {
          "internalType": "uint256",
          "name": "index",
          "type": "uint256"
        }
      ],
      "name": "tokenOfOwnerByIndex",
      "outputs": [
        {
          "internalType": "uint256",
          "name": "",
          "type": "uint256"
        }
      ],
      "stateMutability": "view",
      "type": "function",
      "constant": true
    },
    {
      "inputs": [],
      "name": "getAllNftsOnSale",
      "outputs": [
        {
          "components": [
            {
              "internalType": "uint256",
              "name": "tokenId",
              "type": "uint256"
            },
            {
              "internalType": "uint256",
              "name": "price",
              "type": "uint256"
            },
            {
              "internalType": "address",
              "name": "creator",
              "type": "address"
            },
            {
              "internalType": "bool",
              "name": "isListed",
              "type": "bool"
            }
          ],
          "internalType": "struct NftMarket.NftItem[]",
          "name": "",
          "type": "tuple[]"
        }
      ],
      "stateMutability": "view",
      "type": "function",
      "constant": true
    },
    {
      "inputs": [],
      "name": "getOwnedNfts",
      "outputs": [
        {
          "components": [
            {
              "internalType": "uint256",
              "name": "tokenId",
              "type": "uint256"
            },
            {
              "internalType": "uint256",
              "name": "price",
              "type": "uint256"
            },
            {
              "internalType": "address",
              "name": "creator",
              "type": "address"
            },
            {
              "internalType": "bool",
              "name": "isListed",
              "type": "bool"
            }
          ],
          "internalType": "struct NftMarket.NftItem[]",
          "name": "",
          "type": "tuple[]"
        }
      ],
      "stateMutability": "view",
      "type": "function",
      "constant": true
    },
    {
      "inputs": [
        {
          "internalType": "string",
          "name": "tokenURI",
          "type": "string"
        },
        {
          "internalType": "uint256",
          "name": "price",
          "type": "uint256"
        }
      ],
      "name": "mintToken",
      "outputs": [
        {
          "internalType": "uint256",
          "name": "",
          "type": "uint256"
        }
      ],
      "stateMutability": "payable",
      "type": "function",
      "payable": true
    },
    {
      "inputs": [
        {
          "internalType": "uint256",
          "name": "tokenId",
          "type": "uint256"
        }
      ],
      "name": "buyNft",
      "outputs": [],
      "stateMutability": "payable",
      "type": "function",
      "payable": true
    },
    {
      "inputs": [
        {
          "internalType": "uint256",
          "name": "tokenId",
          "type": "uint256"
        }
      ],
      "name": "buyNftWithMW",
      "outputs": [],
      "stateMutability": "payable",
      "type": "function",
      "payable": true
    },
    {
      "inputs": [
        {
          "internalType": "uint256",
          "name": "tokenId",
          "type": "uint256"
        },
        {
          "internalType": "uint256",
          "name": "newPrice",
          "type": "uint256"
        }
      ],
      "name": "placeNftOnSale",
      "outputs": [],
      "stateMutability": "payable",
      "type": "function",
      "payable": true
    }
  ],
  "bytecode": "0x60806040526658d15e176280006008553480156200001c57600080fd5b506040518060400160405280600a81526020017f50756d706b696e4e4654000000000000000000000000000000000000000000008152506040518060400160405280600481526020017f504e4654000000000000000000000000000000000000000000000000000000008152508160009080519060200190620000a1929190620001b1565b508060019080519060200190620000ba929190620001b1565b505050620000dd620000d1620000e360201b60201c565b620000eb60201b60201c565b620002c6565b600033905090565b6000600760009054906101000a900473ffffffffffffffffffffffffffffffffffffffff16905081600760006101000a81548173ffffffffffffffffffffffffffffffffffffffff021916908373ffffffffffffffffffffffffffffffffffffffff1602179055508173ffffffffffffffffffffffffffffffffffffffff168173ffffffffffffffffffffffffffffffffffffffff167f8be0079c531659141344cd1fd0a4f28419497f9722a3daafe3b4186f6b6457e060405160405180910390a35050565b828054620001bf9062000261565b90600052602060002090601f016020900481019282620001e357600085556200022f565b82601f10620001fe57805160ff19168380011785556200022f565b828001600101855582156200022f579182015b828111156200022e57825182559160200191906001019062000211565b5b5090506200023e919062000242565b5090565b5b808211156200025d57600081600090555060010162000243565b5090565b600060028204905060018216806200027a57607f821691505b6020821081141562000291576200029062000297565b5b50919050565b7f4e487b7100000000000000000000000000000000000000000000000000000000600052602260045260246000fd5b61487880620002d66000396000f3fe6080604052600436106101cd5760003560e01c806370a08231116100f7578063b88d4fde11610095578063ccb4918d11610064578063ccb4918d14610699578063e2c4297d146106c4578063e985e9c5146106e0578063f2fde38b1461071d576101cd565b8063b88d4fde146105d8578063c046372c14610601578063c78f19f914610631578063c87b56dd1461065c576101cd565b80637c726b69116100d15780637c726b69146105305780638da5cb5b1461055957806395d89b4114610584578063a22cb465146105af576101cd565b806370a08231146104b157806370cbcb43146104ee578063715018a614610519576101cd565b8063243adbdd1161016f57806343d32ae71161013e57806343d32ae7146103bd5780634f6ccce7146103fa5780636352211e146104375780636f1a0af514610474576101cd565b8063243adbdd146103105780632f745c591461032c57806336b536be1461036957806342842e0e14610394576101cd565b8063095ea7b3116101ab578063095ea7b31461027757806318160ddd146102a057806321f422e5146102cb57806323b872dd146102e7576101cd565b806301ffc9a7146101d257806306fdde031461020f578063081812fc1461023a575b600080fd5b3480156101de57600080fd5b506101f960048036038101906101f491906133b3565b610746565b6040516102069190613b05565b60405180910390f35b34801561021b57600080fd5b50610224610828565b6040516102319190613b20565b60405180910390f35b34801561024657600080fd5b50610261600480360381019061025c919061349a565b6108ba565b60405161026e9190613a7c565b60405180910390f35b34801561028357600080fd5b5061029e60048036038101906102999190613377565b610900565b005b3480156102ac57600080fd5b506102b5610a18565b6040516102c29190613e3d565b60405180910390f35b6102e560048036038101906102e091906134c3565b610a25565b005b3480156102f357600080fd5b5061030e60048036038101906103099190613271565b610ba1565b005b61032a6004803603810190610325919061349a565b610c01565b005b34801561033857600080fd5b50610353600480360381019061034e9190613377565b610d6a565b6040516103609190613e3d565b60405180910390f35b34801561037557600080fd5b5061037e610e0f565b60405161038b9190613ae3565b60405180910390f35b3480156103a057600080fd5b506103bb60048036038101906103b69190613271565b610ff6565b005b3480156103c957600080fd5b506103e460048036038101906103df9190613405565b611016565b6040516103f19190613b05565b60405180910390f35b34801561040657600080fd5b50610421600480360381019061041c919061349a565b611052565b60405161042e9190613e3d565b60405180910390f35b34801561044357600080fd5b5061045e6004803603810190610459919061349a565b6110e9565b60405161046b9190613a7c565b60405180910390f35b34801561048057600080fd5b5061049b6004803603810190610496919061349a565b61119b565b6040516104a89190613e22565b60405180910390f35b3480156104bd57600080fd5b506104d860048036038101906104d3919061320c565b61124d565b6040516104e59190613e3d565b60405180910390f35b3480156104fa57600080fd5b50610503611305565b6040516105109190613ae3565b60405180910390f35b34801561052557600080fd5b5061052e6114b5565b005b34801561053c57600080fd5b506105576004803603810190610552919061349a565b6114c9565b005b34801561056557600080fd5b5061056e61151e565b60405161057b9190613a7c565b60405180910390f35b34801561059057600080fd5b50610599611548565b6040516105a69190613b20565b60405180910390f35b3480156105bb57600080fd5b506105d660048036038101906105d1919061333b565b6115da565b005b3480156105e457600080fd5b506105ff60048036038101906105fa91906132c0565b6115f0565b005b61061b60048036038101906106169190613446565b611652565b6040516106289190613e3d565b60405180910390f35b34801561063d57600080fd5b50610646611762565b6040516106539190613e3d565b60405180910390f35b34801561066857600080fd5b50610683600480360381019061067e919061349a565b611768565b6040516106909190613b20565b60405180910390f35b3480156106a557600080fd5b506106ae61187b565b6040516106bb9190613e3d565b60405180910390f35b6106de60048036038101906106d9919061349a565b61188c565b005b3480156106ec57600080fd5b5061070760048036038101906107029190613235565b6119da565b6040516107149190613b05565b60405180910390f35b34801561072957600080fd5b50610744600480360381019061073f919061320c565b611a6e565b005b60007f80ac58cd000000000000000000000000000000000000000000000000000000007bffffffffffffffffffffffffffffffffffffffffffffffffffffffff1916827bffffffffffffffffffffffffffffffffffffffffffffffffffffffff1916148061081157507f5b5e139f000000000000000000000000000000000000000000000000000000007bffffffffffffffffffffffffffffffffffffffffffffffffffffffff1916827bffffffffffffffffffffffffffffffffffffffffffffffffffffffff1916145b80610821575061082082611af2565b5b9050919050565b60606000805461083790614111565b80601f016020809104026020016040519081016040528092919081815260200182805461086390614111565b80156108b05780601f10610885576101008083540402835291602001916108b0565b820191906000526020600020905b81548152906001019060200180831161089357829003601f168201915b5050505050905090565b60006108c582611b5c565b6004600083815260200190815260200160002060009054906101000a900473ffffffffffffffffffffffffffffffffffffffff169050919050565b600061090b826110e9565b90508073ffffffffffffffffffffffffffffffffffffffff168373ffffffffffffffffffffffffffffffffffffffff16141561097c576040517f08c379a000000000000000000000000000000000000000000000000000000000815260040161097390613d82565b60405180910390fd5b8073ffffffffffffffffffffffffffffffffffffffff1661099b611ba7565b73ffffffffffffffffffffffffffffffffffffffff1614806109ca57506109c9816109c4611ba7565b6119da565b5b610a09576040517f08c379a0000000000000000000000000000000000000000000000000000000008152600401610a0090613d02565b60405180910390fd5b610a138383611baf565b505050565b6000600f80549050905090565b3373ffffffffffffffffffffffffffffffffffffffff16610a45836110e9565b73ffffffffffffffffffffffffffffffffffffffff1614610a9b576040517f08c379a0000000000000000000000000000000000000000000000000000000008152600401610a9290613c82565b60405180910390fd5b60001515600c600084815260200190815260200160002060020160149054906101000a900460ff16151514610b05576040517f08c379a0000000000000000000000000000000000000000000000000000000008152600401610afc90613ce2565b60405180910390fd5b6008543414610b49576040517f08c379a0000000000000000000000000000000000000000000000000000000008152600401610b4090613da2565b60405180910390fd5b6001600c600084815260200190815260200160002060020160146101000a81548160ff02191690831515021790555080600c600084815260200190815260200160002060010181905550610b9d6009611c68565b5050565b610bb2610bac611ba7565b82611c7e565b610bf1576040517f08c379a0000000000000000000000000000000000000000000000000000000008152600401610be890613de2565b60405180910390fd5b610bfc838383611d13565b505050565b6000600c60008381526020019081526020016000206001015490506000610c27836110e9565b90508073ffffffffffffffffffffffffffffffffffffffff163373ffffffffffffffffffffffffffffffffffffffff161415610c98576040517f08c379a0000000000000000000000000000000000000000000000000000000008152600401610c8f90613c62565b60405180910390fd5b813414610cda576040517f08c379a0000000000000000000000000000000000000000000000000000000008152600401610cd190613ba2565b60405180910390fd5b6000600c600085815260200190815260200160002060020160146101000a81548160ff021916908315150217905550610d136009611f7a565b610d1e813385611d13565b8073ffffffffffffffffffffffffffffffffffffffff166108fc349081150290604051600060405180830381858888f19350505050158015610d64573d6000803e3d6000fd5b50505050565b6000610d758361124d565b8210610db6576040517f08c379a0000000000000000000000000000000000000000000000000000000008152600401610dad90613dc2565b60405180910390fd5b600d60008473ffffffffffffffffffffffffffffffffffffffff1673ffffffffffffffffffffffffffffffffffffffff168152602001908152602001600020600083815260200190815260200160002054905092915050565b60606000610e1b610a18565b9050600080610e2a6009611fd6565b67ffffffffffffffff811115610e69577f4e487b7100000000000000000000000000000000000000000000000000000000600052604160045260246000fd5b604051908082528060200260200182016040528015610ea257816020015b610e8f612ff0565b815260200190600190039081610e875790505b50905060005b83811015610fec576000610ebb82611052565b90506000600c60008381526020019081526020016000209050600115158160020160149054906101000a900460ff1615151415610fd7578060405180608001604052908160008201548152602001600182015481526020016002820160009054906101000a900473ffffffffffffffffffffffffffffffffffffffff1673ffffffffffffffffffffffffffffffffffffffff1673ffffffffffffffffffffffffffffffffffffffff1681526020016002820160149054906101000a900460ff161515151581525050848681518110610fbc577f4e487b7100000000000000000000000000000000000000000000000000000000600052603260045260246000fd5b6020026020010181905250600185610fd49190613fa0565b94505b50508080610fe490614174565b915050610ea8565b5080935050505090565b611011838383604051806020016040528060008152506115f0565b505050565b600060011515600b8360405161102c9190613a41565b908152602001604051809103902060009054906101000a900460ff161515149050919050565b600061105c610a18565b821061109d576040517f08c379a000000000000000000000000000000000000000000000000000000000815260040161109490613dc2565b60405180910390fd5b600f82815481106110d7577f4e487b7100000000000000000000000000000000000000000000000000000000600052603260045260246000fd5b90600052602060002001549050919050565b6000806002600084815260200190815260200160002060009054906101000a900473ffffffffffffffffffffffffffffffffffffffff169050600073ffffffffffffffffffffffffffffffffffffffff168173ffffffffffffffffffffffffffffffffffffffff161415611192576040517f08c379a000000000000000000000000000000000000000000000000000000000815260040161118990613d62565b60405180910390fd5b80915050919050565b6111a3612ff0565b600c600083815260200190815260200160002060405180608001604052908160008201548152602001600182015481526020016002820160009054906101000a900473ffffffffffffffffffffffffffffffffffffffff1673ffffffffffffffffffffffffffffffffffffffff1673ffffffffffffffffffffffffffffffffffffffff1681526020016002820160149054906101000a900460ff1615151515815250509050919050565b60008073ffffffffffffffffffffffffffffffffffffffff168273ffffffffffffffffffffffffffffffffffffffff1614156112be576040517f08c379a00000000000000000000000000000000000000000000000000000000081526004016112b590613ca2565b60405180910390fd5b600360008373ffffffffffffffffffffffffffffffffffffffff1673ffffffffffffffffffffffffffffffffffffffff168152602001908152602001600020549050919050565b606060006113123361124d565b905060008167ffffffffffffffff811115611356577f4e487b7100000000000000000000000000000000000000000000000000000000600052604160045260246000fd5b60405190808252806020026020018201604052801561138f57816020015b61137c612ff0565b8152602001906001900390816113745790505b50905060005b828110156114ac5760006113a93383610d6a565b90506000600c600083815260200190815260200160002090508060405180608001604052908160008201548152602001600182015481526020016002820160009054906101000a900473ffffffffffffffffffffffffffffffffffffffff1673ffffffffffffffffffffffffffffffffffffffff1673ffffffffffffffffffffffffffffffffffffffff1681526020016002820160149054906101000a900460ff16151515158152505084848151811061148c577f4e487b7100000000000000000000000000000000000000000000000000000000600052603260045260246000fd5b6020026020010181905250505080806114a490614174565b915050611395565b50809250505090565b6114bd611fe4565b6114c76000612062565b565b6114d1611fe4565b60008111611514576040517f08c379a000000000000000000000000000000000000000000000000000000000815260040161150b90613e02565b60405180910390fd5b8060088190555050565b6000600760009054906101000a900473ffffffffffffffffffffffffffffffffffffffff16905090565b60606001805461155790614111565b80601f016020809104026020016040519081016040528092919081815260200182805461158390614111565b80156115d05780601f106115a5576101008083540402835291602001916115d0565b820191906000526020600020905b8154815290600101906020018083116115b357829003601f168201915b5050505050905090565b6115ec6115e5611ba7565b8383612128565b5050565b6116016115fb611ba7565b83611c7e565b611640576040517f08c379a000000000000000000000000000000000000000000000000000000000815260040161163790613de2565b60405180910390fd5b61164c84848484612295565b50505050565b600061165d83611016565b1561169d576040517f08c379a000000000000000000000000000000000000000000000000000000000815260040161169490613c42565b60405180910390fd5b60085434146116e1576040517f08c379a00000000000000000000000000000000000000000000000000000000081526004016116d890613da2565b60405180910390fd5b6116eb600a611c68565b6116f56009611c68565b6000611701600a611fd6565b905061170d33826122f1565b611717818561230f565b6117218184612383565b6001600b856040516117339190613a41565b908152602001604051809103902060006101000a81548160ff0219169083151502179055508091505092915050565b60085481565b606061177382611b5c565b600060066000848152602001908152602001600020805461179390614111565b80601f01602080910402602001604051908101604052809291908181526020018280546117bf90614111565b801561180c5780601f106117e15761010080835404028352916020019161180c565b820191906000526020600020905b8154815290600101906020018083116117ef57829003601f168201915b50505050509050600061181d6124d3565b9050600081511415611833578192505050611876565b600082511115611868578082604051602001611850929190613a58565b60405160208183030381529060405292505050611876565b611871846124ea565b925050505b919050565b60006118876009611fd6565b905090565b6000600c600083815260200190815260200160002060010154905060006118b2836110e9565b90508073ffffffffffffffffffffffffffffffffffffffff163373ffffffffffffffffffffffffffffffffffffffff161415611923576040517f08c379a000000000000000000000000000000000000000000000000000000000815260040161191a90613c62565b60405180910390fd5b813414611965576040517f08c379a000000000000000000000000000000000000000000000000000000000815260040161195c90613ba2565b60405180910390fd5b6000600c600085815260200190815260200160002060020160146101000a81548160ff02191690831515021790555061199e6009611f7a565b7f433f1e9f273d7130ef062bdf4723b2f2c6c46583af7d53e2eebfc7f40cad8d82336040516119cd9190613a7c565b60405180910390a1505050565b6000600560008473ffffffffffffffffffffffffffffffffffffffff1673ffffffffffffffffffffffffffffffffffffffff16815260200190815260200160002060008373ffffffffffffffffffffffffffffffffffffffff1673ffffffffffffffffffffffffffffffffffffffff16815260200190815260200160002060009054906101000a900460ff16905092915050565b611a76611fe4565b600073ffffffffffffffffffffffffffffffffffffffff168173ffffffffffffffffffffffffffffffffffffffff161415611ae6576040517f08c379a0000000000000000000000000000000000000000000000000000000008152600401611add90613b82565b60405180910390fd5b611aef81612062565b50565b60007f01ffc9a7000000000000000000000000000000000000000000000000000000007bffffffffffffffffffffffffffffffffffffffffffffffffffffffff1916827bffffffffffffffffffffffffffffffffffffffffffffffffffffffff1916149050919050565b611b6581612552565b611ba4576040517f08c379a0000000000000000000000000000000000000000000000000000000008152600401611b9b90613d62565b60405180910390fd5b50565b600033905090565b816004600083815260200190815260200160002060006101000a81548173ffffffffffffffffffffffffffffffffffffffff021916908373ffffffffffffffffffffffffffffffffffffffff160217905550808273ffffffffffffffffffffffffffffffffffffffff16611c22836110e9565b73ffffffffffffffffffffffffffffffffffffffff167f8c5be1e5ebec7d5bd14f71427d1e84f3dd0314c0f7b2291e5b200ac8c7c3b92560405160405180910390a45050565b6001816000016000828254019250508190555050565b600080611c8a836110e9565b90508073ffffffffffffffffffffffffffffffffffffffff168473ffffffffffffffffffffffffffffffffffffffff161480611ccc5750611ccb81856119da565b5b80611d0a57508373ffffffffffffffffffffffffffffffffffffffff16611cf2846108ba565b73ffffffffffffffffffffffffffffffffffffffff16145b91505092915050565b8273ffffffffffffffffffffffffffffffffffffffff16611d33826110e9565b73ffffffffffffffffffffffffffffffffffffffff1614611d89576040517f08c379a0000000000000000000000000000000000000000000000000000000008152600401611d8090613bc2565b60405180910390fd5b600073ffffffffffffffffffffffffffffffffffffffff168273ffffffffffffffffffffffffffffffffffffffff161415611df9576040517f08c379a0000000000000000000000000000000000000000000000000000000008152600401611df090613c02565b60405180910390fd5b611e048383836125be565b611e0f600082611baf565b6001600360008573ffffffffffffffffffffffffffffffffffffffff1673ffffffffffffffffffffffffffffffffffffffff1681526020019081526020016000206000828254611e5f9190614027565b925050819055506001600360008473ffffffffffffffffffffffffffffffffffffffff1673ffffffffffffffffffffffffffffffffffffffff1681526020019081526020016000206000828254611eb69190613fa0565b92505081905550816002600083815260200190815260200160002060006101000a81548173ffffffffffffffffffffffffffffffffffffffff021916908373ffffffffffffffffffffffffffffffffffffffff160217905550808273ffffffffffffffffffffffffffffffffffffffff168473ffffffffffffffffffffffffffffffffffffffff167fddf252ad1be2c89b69c2b068fc378daa952ba7f163c4a11628f55a4df523b3ef60405160405180910390a4611f758383836126d2565b505050565b60008160000154905060008111611fc6576040517f08c379a0000000000000000000000000000000000000000000000000000000008152600401611fbd90613b42565b60405180910390fd5b6001810382600001819055505050565b600081600001549050919050565b611fec611ba7565b73ffffffffffffffffffffffffffffffffffffffff1661200a61151e565b73ffffffffffffffffffffffffffffffffffffffff1614612060576040517f08c379a000000000000000000000000000000000000000000000000000000000815260040161205790613d42565b60405180910390fd5b565b6000600760009054906101000a900473ffffffffffffffffffffffffffffffffffffffff16905081600760006101000a81548173ffffffffffffffffffffffffffffffffffffffff021916908373ffffffffffffffffffffffffffffffffffffffff1602179055508173ffffffffffffffffffffffffffffffffffffffff168173ffffffffffffffffffffffffffffffffffffffff167f8be0079c531659141344cd1fd0a4f28419497f9722a3daafe3b4186f6b6457e060405160405180910390a35050565b8173ffffffffffffffffffffffffffffffffffffffff168373ffffffffffffffffffffffffffffffffffffffff161415612197576040517f08c379a000000000000000000000000000000000000000000000000000000000815260040161218e90613c22565b60405180910390fd5b80600560008573ffffffffffffffffffffffffffffffffffffffff1673ffffffffffffffffffffffffffffffffffffffff16815260200190815260200160002060008473ffffffffffffffffffffffffffffffffffffffff1673ffffffffffffffffffffffffffffffffffffffff16815260200190815260200160002060006101000a81548160ff0219169083151502179055508173ffffffffffffffffffffffffffffffffffffffff168373ffffffffffffffffffffffffffffffffffffffff167f17307eab39ab6107e8899845ad3d59bd9653f200f220920489ca2b5937696c31836040516122889190613b05565b60405180910390a3505050565b6122a0848484611d13565b6122ac848484846126d7565b6122eb576040517f08c379a00000000000000000000000000000000000000000000000000000000081526004016122e290613b62565b60405180910390fd5b50505050565b61230b82826040518060200160405280600081525061286e565b5050565b61231882612552565b612357576040517f08c379a000000000000000000000000000000000000000000000000000000000815260040161234e90613cc2565b60405180910390fd5b8060066000848152602001908152602001600020908051906020019061237e929190613030565b505050565b600081116123c6576040517f08c379a00000000000000000000000000000000000000000000000000000000081526004016123bd90613e02565b60405180910390fd5b60405180608001604052808381526020018281526020013373ffffffffffffffffffffffffffffffffffffffff16815260200160011515815250600c6000848152602001908152602001600020600082015181600001556020820151816001015560408201518160020160006101000a81548173ffffffffffffffffffffffffffffffffffffffff021916908373ffffffffffffffffffffffffffffffffffffffff16021790555060608201518160020160146101000a81548160ff0219169083151502179055509050507f470031062672bc0246e132c723a729c4676710ec663a29e86c88678032daddea82823360016040516124c79493929190613e58565b60405180910390a15050565b606060405180602001604052806000815250905090565b60606124f582611b5c565b60006124ff6124d3565b9050600081511161251f576040518060200160405280600081525061254a565b80612529846128c9565b60405160200161253a929190613a58565b6040516020818303038152906040525b915050919050565b60008073ffffffffffffffffffffffffffffffffffffffff166002600084815260200190815260200160002060009054906101000a900473ffffffffffffffffffffffffffffffffffffffff1673ffffffffffffffffffffffffffffffffffffffff1614159050919050565b6125c9838383612a76565b600073ffffffffffffffffffffffffffffffffffffffff168373ffffffffffffffffffffffffffffffffffffffff16141561260c5761260781612a7b565b61264b565b8173ffffffffffffffffffffffffffffffffffffffff168373ffffffffffffffffffffffffffffffffffffffff161461264a576126498382612ac4565b5b5b600073ffffffffffffffffffffffffffffffffffffffff168273ffffffffffffffffffffffffffffffffffffffff16141561268e5761268981612c31565b6126cd565b8273ffffffffffffffffffffffffffffffffffffffff168273ffffffffffffffffffffffffffffffffffffffff16146126cc576126cb8282612d74565b5b5b505050565b505050565b60006126f88473ffffffffffffffffffffffffffffffffffffffff16612df3565b15612861578373ffffffffffffffffffffffffffffffffffffffff1663150b7a02612721611ba7565b8786866040518563ffffffff1660e01b81526004016127439493929190613a97565b602060405180830381600087803b15801561275d57600080fd5b505af192505050801561278e57506040513d601f19601f8201168201806040525081019061278b91906133dc565b60015b612811573d80600081146127be576040519150601f19603f3d011682016040523d82523d6000602084013e6127c3565b606091505b50600081511415612809576040517f08c379a000000000000000000000000000000000000000000000000000000000815260040161280090613b62565b60405180910390fd5b805181602001fd5b63150b7a0260e01b7bffffffffffffffffffffffffffffffffffffffffffffffffffffffff1916817bffffffffffffffffffffffffffffffffffffffffffffffffffffffff191614915050612866565b600190505b949350505050565b6128788383612e16565b61288560008484846126d7565b6128c4576040517f08c379a00000000000000000000000000000000000000000000000000000000081526004016128bb90613b62565b60405180910390fd5b505050565b60606000821415612911576040518060400160405280600181526020017f30000000000000000000000000000000000000000000000000000000000000008152509050612a71565b600082905060005b6000821461294357808061292c90614174565b915050600a8261293c9190613ff6565b9150612919565b60008167ffffffffffffffff811115612985577f4e487b7100000000000000000000000000000000000000000000000000000000600052604160045260246000fd5b6040519080825280601f01601f1916602001820160405280156129b75781602001600182028036833780820191505090505b5090505b60008514612a6a576001826129d09190614027565b9150600a856129df91906141bd565b60306129eb9190613fa0565b60f81b818381518110612a27577f4e487b7100000000000000000000000000000000000000000000000000000000600052603260045260246000fd5b60200101907effffffffffffffffffffffffffffffffffffffffffffffffffffffffffffff1916908160001a905350600a85612a639190613ff6565b94506129bb565b8093505050505b919050565b505050565b600f805490506010600083815260200190815260200160002081905550600f81908060018154018082558091505060019003906000526020600020016000909190919091505550565b60006001612ad18461124d565b612adb9190614027565b90506000600e6000848152602001908152602001600020549050818114612bc0576000600d60008673ffffffffffffffffffffffffffffffffffffffff1673ffffffffffffffffffffffffffffffffffffffff168152602001908152602001600020600084815260200190815260200160002054905080600d60008773ffffffffffffffffffffffffffffffffffffffff1673ffffffffffffffffffffffffffffffffffffffff16815260200190815260200160002060008481526020019081526020016000208190555081600e600083815260200190815260200160002081905550505b600e600084815260200190815260200160002060009055600d60008573ffffffffffffffffffffffffffffffffffffffff1673ffffffffffffffffffffffffffffffffffffffff16815260200190815260200160002060008381526020019081526020016000206000905550505050565b60006001600f80549050612c459190614027565b90506000601060008481526020019081526020016000205490506000600f8381548110612c9b577f4e487b7100000000000000000000000000000000000000000000000000000000600052603260045260246000fd5b9060005260206000200154905080600f8381548110612ce3577f4e487b7100000000000000000000000000000000000000000000000000000000600052603260045260246000fd5b90600052602060002001819055508160106000838152602001908152602001600020819055506010600085815260200190815260200160002060009055600f805480612d58577f4e487b7100000000000000000000000000000000000000000000000000000000600052603160045260246000fd5b6001900381819060005260206000200160009055905550505050565b6000612d7f8361124d565b905081600d60008573ffffffffffffffffffffffffffffffffffffffff1673ffffffffffffffffffffffffffffffffffffffff16815260200190815260200160002060008381526020019081526020016000208190555080600e600084815260200190815260200160002081905550505050565b6000808273ffffffffffffffffffffffffffffffffffffffff163b119050919050565b600073ffffffffffffffffffffffffffffffffffffffff168273ffffffffffffffffffffffffffffffffffffffff161415612e86576040517f08c379a0000000000000000000000000000000000000000000000000000000008152600401612e7d90613d22565b60405180910390fd5b612e8f81612552565b15612ecf576040517f08c379a0000000000000000000000000000000000000000000000000000000008152600401612ec690613be2565b60405180910390fd5b612edb600083836125be565b6001600360008473ffffffffffffffffffffffffffffffffffffffff1673ffffffffffffffffffffffffffffffffffffffff1681526020019081526020016000206000828254612f2b9190613fa0565b92505081905550816002600083815260200190815260200160002060006101000a81548173ffffffffffffffffffffffffffffffffffffffff021916908373ffffffffffffffffffffffffffffffffffffffff160217905550808273ffffffffffffffffffffffffffffffffffffffff16600073ffffffffffffffffffffffffffffffffffffffff167fddf252ad1be2c89b69c2b068fc378daa952ba7f163c4a11628f55a4df523b3ef60405160405180910390a4612fec600083836126d2565b5050565b60405180608001604052806000815260200160008152602001600073ffffffffffffffffffffffffffffffffffffffff1681526020016000151581525090565b82805461303c90614111565b90600052602060002090601f01602090048101928261305e57600085556130a5565b82601f1061307757805160ff19168380011785556130a5565b828001600101855582156130a5579182015b828111156130a4578251825591602001919060010190613089565b5b5090506130b291906130b6565b5090565b5b808211156130cf5760008160009055506001016130b7565b5090565b60006130e66130e184613ec2565b613e9d565b9050828152602081018484840111156130fe57600080fd5b6131098482856140cf565b509392505050565b600061312461311f84613ef3565b613e9d565b90508281526020810184848401111561313c57600080fd5b6131478482856140cf565b509392505050565b60008135905061315e816147e6565b92915050565b600081359050613173816147fd565b92915050565b60008135905061318881614814565b92915050565b60008151905061319d81614814565b92915050565b600082601f8301126131b457600080fd5b81356131c48482602086016130d3565b91505092915050565b600082601f8301126131de57600080fd5b81356131ee848260208601613111565b91505092915050565b6000813590506132068161482b565b92915050565b60006020828403121561321e57600080fd5b600061322c8482850161314f565b91505092915050565b6000806040838503121561324857600080fd5b60006132568582860161314f565b92505060206132678582860161314f565b9150509250929050565b60008060006060848603121561328657600080fd5b60006132948682870161314f565b93505060206132a58682870161314f565b92505060406132b6868287016131f7565b9150509250925092565b600080600080608085870312156132d657600080fd5b60006132e48782880161314f565b94505060206132f58782880161314f565b9350506040613306878288016131f7565b925050606085013567ffffffffffffffff81111561332357600080fd5b61332f878288016131a3565b91505092959194509250565b6000806040838503121561334e57600080fd5b600061335c8582860161314f565b925050602061336d85828601613164565b9150509250929050565b6000806040838503121561338a57600080fd5b60006133988582860161314f565b92505060206133a9858286016131f7565b9150509250929050565b6000602082840312156133c557600080fd5b60006133d384828501613179565b91505092915050565b6000602082840312156133ee57600080fd5b60006133fc8482850161318e565b91505092915050565b60006020828403121561341757600080fd5b600082013567ffffffffffffffff81111561343157600080fd5b61343d848285016131cd565b91505092915050565b6000806040838503121561345957600080fd5b600083013567ffffffffffffffff81111561347357600080fd5b61347f858286016131cd565b9250506020613490858286016131f7565b9150509250929050565b6000602082840312156134ac57600080fd5b60006134ba848285016131f7565b91505092915050565b600080604083850312156134d657600080fd5b60006134e4858286016131f7565b92505060206134f5858286016131f7565b9150509250929050565b600061350b8383613979565b60808301905092915050565b6135208161405b565b82525050565b61352f8161405b565b82525050565b600061354082613f34565b61354a8185613f62565b935061355583613f24565b8060005b8381101561358657815161356d88826134ff565b975061357883613f55565b925050600181019050613559565b5085935050505092915050565b61359c8161406d565b82525050565b6135ab8161406d565b82525050565b60006135bc82613f3f565b6135c68185613f73565b93506135d68185602086016140de565b6135df816142aa565b840191505092915050565b60006135f582613f4a565b6135ff8185613f84565b935061360f8185602086016140de565b613618816142aa565b840191505092915050565b600061362e82613f4a565b6136388185613f95565b93506136488185602086016140de565b80840191505092915050565b6000613661601b83613f84565b915061366c826142bb565b602082019050919050565b6000613684603283613f84565b915061368f826142e4565b604082019050919050565b60006136a7602683613f84565b91506136b282614333565b604082019050919050565b60006136ca601e83613f84565b91506136d582614382565b602082019050919050565b60006136ed602583613f84565b91506136f8826143ab565b604082019050919050565b6000613710601c83613f84565b915061371b826143fa565b602082019050919050565b6000613733602483613f84565b915061373e82614423565b604082019050919050565b6000613756601983613f84565b915061376182614472565b602082019050919050565b6000613779601883613f84565b91506137848261449b565b602082019050919050565b600061379c601883613f84565b91506137a7826144c4565b602082019050919050565b60006137bf601d83613f84565b91506137ca826144ed565b602082019050919050565b60006137e2602983613f84565b91506137ed82614516565b604082019050919050565b6000613805602e83613f84565b915061381082614565565b604082019050919050565b6000613828601783613f84565b9150613833826145b4565b602082019050919050565b600061384b603e83613f84565b9150613856826145dd565b604082019050919050565b600061386e602083613f84565b91506138798261462c565b602082019050919050565b6000613891602083613f84565b915061389c82614655565b602082019050919050565b60006138b4601883613f84565b91506138bf8261467e565b602082019050919050565b60006138d7602183613f84565b91506138e2826146a7565b604082019050919050565b60006138fa602483613f84565b9150613905826146f6565b604082019050919050565b600061391d601383613f84565b915061392882614745565b602082019050919050565b6000613940602e83613f84565b915061394b8261476e565b604082019050919050565b6000613963601c83613f84565b915061396e826147bd565b602082019050919050565b60808201600082015161398f6000850182613a23565b5060208201516139a26020850182613a23565b5060408201516139b56040850182613517565b5060608201516139c86060850182613593565b50505050565b6080820160008201516139e46000850182613a23565b5060208201516139f76020850182613a23565b506040820151613a0a6040850182613517565b506060820151613a1d6060850182613593565b50505050565b613a2c816140c5565b82525050565b613a3b816140c5565b82525050565b6000613a4d8284613623565b915081905092915050565b6000613a648285613623565b9150613a708284613623565b91508190509392505050565b6000602082019050613a916000830184613526565b92915050565b6000608082019050613aac6000830187613526565b613ab96020830186613526565b613ac66040830185613a32565b8181036060830152613ad881846135b1565b905095945050505050565b60006020820190508181036000830152613afd8184613535565b905092915050565b6000602082019050613b1a60008301846135a2565b92915050565b60006020820190508181036000830152613b3a81846135ea565b905092915050565b60006020820190508181036000830152613b5b81613654565b9050919050565b60006020820190508181036000830152613b7b81613677565b9050919050565b60006020820190508181036000830152613b9b8161369a565b9050919050565b60006020820190508181036000830152613bbb816136bd565b9050919050565b60006020820190508181036000830152613bdb816136e0565b9050919050565b60006020820190508181036000830152613bfb81613703565b9050919050565b60006020820190508181036000830152613c1b81613726565b9050919050565b60006020820190508181036000830152613c3b81613749565b9050919050565b60006020820190508181036000830152613c5b8161376c565b9050919050565b60006020820190508181036000830152613c7b8161378f565b9050919050565b60006020820190508181036000830152613c9b816137b2565b9050919050565b60006020820190508181036000830152613cbb816137d5565b9050919050565b60006020820190508181036000830152613cdb816137f8565b9050919050565b60006020820190508181036000830152613cfb8161381b565b9050919050565b60006020820190508181036000830152613d1b8161383e565b9050919050565b60006020820190508181036000830152613d3b81613861565b9050919050565b60006020820190508181036000830152613d5b81613884565b9050919050565b60006020820190508181036000830152613d7b816138a7565b9050919050565b60006020820190508181036000830152613d9b816138ca565b9050919050565b60006020820190508181036000830152613dbb816138ed565b9050919050565b60006020820190508181036000830152613ddb81613910565b9050919050565b60006020820190508181036000830152613dfb81613933565b9050919050565b60006020820190508181036000830152613e1b81613956565b9050919050565b6000608082019050613e3760008301846139ce565b92915050565b6000602082019050613e526000830184613a32565b92915050565b6000608082019050613e6d6000830187613a32565b613e7a6020830186613a32565b613e876040830185613526565b613e9460608301846135a2565b95945050505050565b6000613ea7613eb8565b9050613eb38282614143565b919050565b6000604051905090565b600067ffffffffffffffff821115613edd57613edc61427b565b5b613ee6826142aa565b9050602081019050919050565b600067ffffffffffffffff821115613f0e57613f0d61427b565b5b613f17826142aa565b9050602081019050919050565b6000819050602082019050919050565b600081519050919050565b600081519050919050565b600081519050919050565b6000602082019050919050565b600082825260208201905092915050565b600082825260208201905092915050565b600082825260208201905092915050565b600081905092915050565b6000613fab826140c5565b9150613fb6836140c5565b9250827fffffffffffffffffffffffffffffffffffffffffffffffffffffffffffffffff03821115613feb57613fea6141ee565b5b828201905092915050565b6000614001826140c5565b915061400c836140c5565b92508261401c5761401b61421d565b5b828204905092915050565b6000614032826140c5565b915061403d836140c5565b9250828210156140505761404f6141ee565b5b828203905092915050565b6000614066826140a5565b9050919050565b60008115159050919050565b60007fffffffff0000000000000000000000000000000000000000000000000000000082169050919050565b600073ffffffffffffffffffffffffffffffffffffffff82169050919050565b6000819050919050565b82818337600083830152505050565b60005b838110156140fc5780820151818401526020810190506140e1565b8381111561410b576000848401525b50505050565b6000600282049050600182168061412957607f821691505b6020821081141561413d5761413c61424c565b5b50919050565b61414c826142aa565b810181811067ffffffffffffffff8211171561416b5761416a61427b565b5b80604052505050565b600061417f826140c5565b91507fffffffffffffffffffffffffffffffffffffffffffffffffffffffffffffffff8214156141b2576141b16141ee565b5b600182019050919050565b60006141c8826140c5565b91506141d3836140c5565b9250826141e3576141e261421d565b5b828206905092915050565b7f4e487b7100000000000000000000000000000000000000000000000000000000600052601160045260246000fd5b7f4e487b7100000000000000000000000000000000000000000000000000000000600052601260045260246000fd5b7f4e487b7100000000000000000000000000000000000000000000000000000000600052602260045260246000fd5b7f4e487b7100000000000000000000000000000000000000000000000000000000600052604160045260246000fd5b6000601f19601f8301169050919050565b7f436f756e7465723a2064656372656d656e74206f766572666c6f770000000000600082015250565b7f4552433732313a207472616e7366657220746f206e6f6e20455243373231526560008201527f63656976657220696d706c656d656e7465720000000000000000000000000000602082015250565b7f4f776e61626c653a206e6577206f776e657220697320746865207a65726f206160008201527f6464726573730000000000000000000000000000000000000000000000000000602082015250565b7f506c65617365207375626d6974207468652061736b696e672070726963650000600082015250565b7f4552433732313a207472616e736665722066726f6d20696e636f72726563742060008201527f6f776e6572000000000000000000000000000000000000000000000000000000602082015250565b7f4552433732313a20746f6b656e20616c7265616479206d696e74656400000000600082015250565b7f4552433732313a207472616e7366657220746f20746865207a65726f2061646460008201527f7265737300000000000000000000000000000000000000000000000000000000602082015250565b7f4552433732313a20617070726f766520746f2063616c6c657200000000000000600082015250565b7f546f6b656e2055524920616c7265616479206578697374730000000000000000600082015250565b7f596f7520616c7265616479206f776e2074686973204e46540000000000000000600082015250565b7f596f7520617265206e6f74206f776e6572206f662074686973206e6674000000600082015250565b7f4552433732313a2061646472657373207a65726f206973206e6f74206120766160008201527f6c6964206f776e65720000000000000000000000000000000000000000000000602082015250565b7f45524337323155524953746f726167653a2055524920736574206f66206e6f6e60008201527f6578697374656e7420746f6b656e000000000000000000000000000000000000602082015250565b7f4974656d20697320616c7265616479206f6e2073616c65000000000000000000600082015250565b7f4552433732313a20617070726f76652063616c6c6572206973206e6f7420746f60008201527f6b656e206f776e6572206e6f7220617070726f76656420666f7220616c6c0000602082015250565b7f4552433732313a206d696e7420746f20746865207a65726f2061646472657373600082015250565b7f4f776e61626c653a2063616c6c6572206973206e6f7420746865206f776e6572600082015250565b7f4552433732313a20696e76616c696420746f6b656e2049440000000000000000600082015250565b7f4552433732313a20617070726f76616c20746f2063757272656e74206f776e6560008201527f7200000000000000000000000000000000000000000000000000000000000000602082015250565b7f5072696365206d75737420626520657175616c20746f206c697374696e67207060008201527f7269636500000000000000000000000000000000000000000000000000000000602082015250565b7f496e646578206f7574206f6620626f756e647300000000000000000000000000600082015250565b7f4552433732313a2063616c6c6572206973206e6f7420746f6b656e206f776e6560008201527f72206e6f7220617070726f766564000000000000000000000000000000000000602082015250565b7f5072696365206d757374206265206174206c6561737420312077656900000000600082015250565b6147ef8161405b565b81146147fa57600080fd5b50565b6148068161406d565b811461481157600080fd5b50565b61481d81614079565b811461482857600080fd5b50565b614834816140c5565b811461483f57600080fd5b5056fea26469706673582212204dc7b80a333f69d0734bb9ceecb98f98a325bffd693928de2b93d1567c79109164736f6c63430008010033",
  "immutableReferences": {},
  "source": "// SPDX-License-Identifier: MIT\npragma solidity >=0.4.22 <0.9.0;\n\nimport \"@openzeppelin/contracts/token/ERC721/extensions/ERC721URIStorage.sol\";\nimport \"@openzeppelin/contracts/utils/Counters.sol\";\nimport \"@openzeppelin/contracts/access/Ownable.sol\";\n\ncontract NftMarket is ERC721URIStorage, Ownable {\n    using Counters for Counters.Counter;\n\n    struct NftItem {\n        uint tokenId;\n        uint price;\n        address creator;\n        bool isListed;\n    }\n\n    uint public listingPrice = 0.025 ether;\n\n    Counters.Counter private _listedItems;\n    Counters.Counter private _tokenIds;\n\n    mapping(string => bool) private _usedTokenURIs;\n    mapping(uint => NftItem) private _idToNftItem;\n\n    mapping(address => mapping(uint => uint)) private _ownedTokens;\n    mapping(uint => uint) private _idToOwnedIndex;\n\n    uint256[] private _allNfts;\n    mapping(uint => uint) private _idToNftIndex;\n\n    event NftItemCreated (\n        uint tokenId,\n        uint price,\n        address creator,\n        bool isListed\n    );\n    event TestMessSender (\n        address sender\n    );\n    constructor() ERC721(\"PumpkinNFT\", \"PNFT\") {}\n\n    //The difference is because in public functions,\n    //Solidity immediately copies array arguments to memory,\n    // while external functions can read directly from calldata.\n    //Memory allocation is expensive, whereas reading from calldata is cheap.\n\n    // external uses gas 261\n    function setListingPrice(uint newPrice) external onlyOwner {\n        require(newPrice > 0, \"Price must be at least 1 wei\");\n        listingPrice = newPrice;\n    }\n    //public uses 496 gas\n    function getNftItem(uint tokenId) public view returns (NftItem memory) {\n        return _idToNftItem[tokenId];\n    }\n\n    function listedItemsCount() public view returns (uint) {\n        return _listedItems.current();\n    }\n\n    function tokenURIExists(string memory tokenURI) public view returns (bool) {\n        return _usedTokenURIs[tokenURI] == true;\n    }\n\n    function totalSupply() public view returns (uint) {\n        return _allNfts.length;\n    }\n\n    function tokenByIndex(uint index) public view returns (uint) {\n        require(index < totalSupply(), \"Index out of bounds\");\n        return _allNfts[index];\n    }\n\n    function tokenOfOwnerByIndex(address owner, uint index) public view returns (uint) {\n        require(index < ERC721.balanceOf(owner), \"Index out of bounds\");\n        return _ownedTokens[owner][index];\n    }\n\n    function getAllNftsOnSale() public view returns (NftItem[] memory) {\n        uint allItemsCounts = totalSupply();\n        uint currentIndex = 0;\n        NftItem[] memory items = new NftItem[](_listedItems.current());\n\n        for (uint i = 0; i < allItemsCounts; i++) {\n            uint tokenId = tokenByIndex(i);\n            NftItem storage item = _idToNftItem[tokenId];\n\n            if (item.isListed == true) {\n                items[currentIndex] = item;\n                currentIndex += 1;\n            }\n        }\n\n        return items;\n    }\n\n    function getOwnedNfts() public view returns (NftItem[] memory) {\n        uint ownedItemsCount = ERC721.balanceOf(msg.sender);\n        NftItem[] memory items = new NftItem[](ownedItemsCount);\n\n        for (uint i = 0; i < ownedItemsCount; i++) {\n            uint tokenId = tokenOfOwnerByIndex(msg.sender, i);\n            NftItem storage item = _idToNftItem[tokenId];\n            items[i] = item;\n        }\n\n        return items;\n    }\n\n    function mintToken(string memory tokenURI, uint price) public payable returns (uint) {\n        require(!tokenURIExists(tokenURI), \"Token URI already exists\");\n        require(msg.value == listingPrice, \"Price must be equal to listing price\");\n\n        _tokenIds.increment();\n        _listedItems.increment();\n\n        uint newTokenId = _tokenIds.current();\n\n        _safeMint(msg.sender, newTokenId);\n        _setTokenURI(newTokenId, tokenURI);\n        _createNftItem(newTokenId, price);\n        _usedTokenURIs[tokenURI] = true;\n\n        return newTokenId;\n    }\n\n    function buyNft(\n        uint tokenId\n    ) public payable {\n        uint price = _idToNftItem[tokenId].price;\n        address owner = ERC721.ownerOf(tokenId);\n\n        require(msg.sender != owner, \"You already own this NFT\");\n        require(msg.value == price, \"Please submit the asking price\");\n\n        _idToNftItem[tokenId].isListed = false;\n        _listedItems.decrement();\n\n        _transfer(owner, msg.sender, tokenId);\n        payable(owner).transfer(msg.value);\n    }\n\n    function buyNftWithMW(\n        uint tokenId\n    ) public payable {\n        uint price = _idToNftItem[tokenId].price;\n        address owner = ERC721.ownerOf(tokenId);\n\n        require(msg.sender != owner, \"You already own this NFT\");\n        require(msg.value == price, \"Please submit the asking price\");\n\n        _idToNftItem[tokenId].isListed = false;\n        _listedItems.decrement();\n        emit TestMessSender(msg.sender);\n\n    }\n\n    function placeNftOnSale(uint tokenId, uint newPrice) public payable {\n        require(ERC721.ownerOf(tokenId) == msg.sender, \"You are not owner of this nft\");\n        require(_idToNftItem[tokenId].isListed == false, \"Item is already on sale\");\n        require(msg.value == listingPrice, \"Price must be equal to listing price\");\n\n        _idToNftItem[tokenId].isListed = true;\n        _idToNftItem[tokenId].price = newPrice;\n        _listedItems.increment();\n    }\n\n    function _createNftItem(\n        uint tokenId,\n        uint price\n    ) private {\n        require(price > 0, \"Price must be at least 1 wei\");\n\n        _idToNftItem[tokenId] = NftItem(\n            tokenId,\n            price,\n            msg.sender,\n            true\n        );\n\n        emit NftItemCreated(tokenId, price, msg.sender, true);\n    }\n\n    function _beforeTokenTransfer(\n        address from,\n        address to,\n        uint tokenId\n    ) internal virtual override {\n        super._beforeTokenTransfer(from, to, tokenId);\n\n        if (from == address(0)) {\n            _addTokenToAllTokensEnumeration(tokenId);\n        } else if (from != to) {\n            _removeTokenFromOwnerEnumeration(from, tokenId);\n        }\n\n        if (to == address(0)) {\n            _removeTokenFromAllTokensEnumeration(tokenId);\n        } else if (to != from) {\n            _addTokenToOwnerEnumeration(to, tokenId);\n        }\n    }\n\n    function _addTokenToAllTokensEnumeration(uint tokenId) private {\n        _idToNftIndex[tokenId] = _allNfts.length;\n        _allNfts.push(tokenId);\n    }\n\n    function _addTokenToOwnerEnumeration(address to, uint tokenId) private {\n        uint length = ERC721.balanceOf(to);\n        _ownedTokens[to][length] = tokenId;\n        _idToOwnedIndex[tokenId] = length;\n    }\n\n    function _removeTokenFromOwnerEnumeration(address from, uint tokenId) private {\n        uint lastTokenIndex = ERC721.balanceOf(from) - 1;\n        uint tokenIndex = _idToOwnedIndex[tokenId];\n\n        if (tokenIndex != lastTokenIndex) {\n            uint lastTokenId = _ownedTokens[from][lastTokenIndex];\n\n            _ownedTokens[from][tokenIndex] = lastTokenId;\n            _idToOwnedIndex[lastTokenId] = tokenIndex;\n        }\n\n        delete _idToOwnedIndex[tokenId];\n        delete _ownedTokens[from][lastTokenIndex];\n    }\n\n    function _removeTokenFromAllTokensEnumeration(uint tokenId) private {\n        uint lastTokenIndex = _allNfts.length - 1;\n        uint tokenIndex = _idToNftIndex[tokenId];\n        uint lastTokenId = _allNfts[lastTokenIndex];\n\n        _allNfts[tokenIndex] = lastTokenId;\n        _idToNftIndex[lastTokenId] = tokenIndex;\n\n        delete _idToNftIndex[tokenId];\n        _allNfts.pop();\n    }\n}",
  "sourcePath": "/home/igor/11_Ethereum/nft-market/contracts/NftMarket.sol",
  "compiler": {
    "name": "solc",
    "version": "0.8.1+commit.df193b15.Emscripten.clang"
  },
  "schemaVersion": "3.4.9",
  "updatedAt": "2022-12-15T08:11:35.788Z",
  "networkType": "ethereum",
  "devdoc": {
    "kind": "dev",
    "methods": {
      "approve(address,uint256)": {
        "details": "See {IERC721-approve}."
      },
      "balanceOf(address)": {
        "details": "See {IERC721-balanceOf}."
      },
      "getApproved(uint256)": {
        "details": "See {IERC721-getApproved}."
      },
      "isApprovedForAll(address,address)": {
        "details": "See {IERC721-isApprovedForAll}."
      },
      "name()": {
        "details": "See {IERC721Metadata-name}."
      },
      "owner()": {
        "details": "Returns the address of the current owner."
      },
      "ownerOf(uint256)": {
        "details": "See {IERC721-ownerOf}."
      },
      "renounceOwnership()": {
        "details": "Leaves the contract without owner. It will not be possible to call `onlyOwner` functions anymore. Can only be called by the current owner. NOTE: Renouncing ownership will leave the contract without an owner, thereby removing any functionality that is only available to the owner."
      },
      "safeTransferFrom(address,address,uint256)": {
        "details": "See {IERC721-safeTransferFrom}."
      },
      "safeTransferFrom(address,address,uint256,bytes)": {
        "details": "See {IERC721-safeTransferFrom}."
      },
      "setApprovalForAll(address,bool)": {
        "details": "See {IERC721-setApprovalForAll}."
      },
      "supportsInterface(bytes4)": {
        "details": "See {IERC165-supportsInterface}."
      },
      "symbol()": {
        "details": "See {IERC721Metadata-symbol}."
      },
      "tokenURI(uint256)": {
        "details": "See {IERC721Metadata-tokenURI}."
      },
      "transferFrom(address,address,uint256)": {
        "details": "See {IERC721-transferFrom}."
      },
      "transferOwnership(address)": {
        "details": "Transfers ownership of the contract to a new account (`newOwner`). Can only be called by the current owner."
      }
    },
    "version": 1
  },
  "userdoc": {
    "kind": "user",
    "methods": {},
    "version": 1
  }
}