{
  "contractName": "NftMarket",
  "abi": [
    {
      "inputs": [],
      "stateMutability": "nonpayable",
      "type": "constructor"
    },
    {
      "anonymous": false,
      "inputs": [
        {
          "indexed": true,
          "internalType": "address",
          "name": "owner",
          "type": "address"
        },
        {
          "indexed": true,
          "internalType": "address",
          "name": "approved",
          "type": "address"
        },
        {
          "indexed": true,
          "internalType": "uint256",
          "name": "tokenId",
          "type": "uint256"
        }
      ],
      "name": "Approval",
      "type": "event"
    },
    {
      "anonymous": false,
      "inputs": [
        {
          "indexed": true,
          "internalType": "address",
          "name": "owner",
          "type": "address"
        },
        {
          "indexed": true,
          "internalType": "address",
          "name": "operator",
          "type": "address"
        },
        {
          "indexed": false,
          "internalType": "bool",
          "name": "approved",
          "type": "bool"
        }
      ],
      "name": "ApprovalForAll",
      "type": "event"
    },
    {
      "anonymous": false,
      "inputs": [
        {
          "indexed": false,
          "internalType": "uint256",
          "name": "tokenId",
          "type": "uint256"
        },
        {
          "indexed": false,
          "internalType": "uint256",
          "name": "price",
          "type": "uint256"
        },
        {
          "indexed": false,
          "internalType": "address",
          "name": "creator",
          "type": "address"
        },
        {
          "indexed": false,
          "internalType": "bool",
          "name": "isListed",
          "type": "bool"
        }
      ],
      "name": "NftItemCreated",
      "type": "event"
    },
    {
      "anonymous": false,
      "inputs": [
        {
          "indexed": true,
          "internalType": "address",
          "name": "previousOwner",
          "type": "address"
        },
        {
          "indexed": true,
          "internalType": "address",
          "name": "newOwner",
          "type": "address"
        }
      ],
      "name": "OwnershipTransferred",
      "type": "event"
    },
    {
      "anonymous": false,
      "inputs": [
        {
          "indexed": true,
          "internalType": "address",
          "name": "from",
          "type": "address"
        },
        {
          "indexed": true,
          "internalType": "address",
          "name": "to",
          "type": "address"
        },
        {
          "indexed": true,
          "internalType": "uint256",
          "name": "tokenId",
          "type": "uint256"
        }
      ],
      "name": "Transfer",
      "type": "event"
    },
    {
      "inputs": [
        {
          "internalType": "address",
          "name": "to",
          "type": "address"
        },
        {
          "internalType": "uint256",
          "name": "tokenId",
          "type": "uint256"
        }
      ],
      "name": "approve",
      "outputs": [],
      "stateMutability": "nonpayable",
      "type": "function"
    },
    {
      "inputs": [
        {
          "internalType": "address",
          "name": "owner",
          "type": "address"
        }
      ],
      "name": "balanceOf",
      "outputs": [
        {
          "internalType": "uint256",
          "name": "",
          "type": "uint256"
        }
      ],
      "stateMutability": "view",
      "type": "function",
      "constant": true
    },
    {
      "inputs": [
        {
          "internalType": "uint256",
          "name": "tokenId",
          "type": "uint256"
        }
      ],
      "name": "getApproved",
      "outputs": [
        {
          "internalType": "address",
          "name": "",
          "type": "address"
        }
      ],
      "stateMutability": "view",
      "type": "function",
      "constant": true
    },
    {
      "inputs": [
        {
          "internalType": "address",
          "name": "owner",
          "type": "address"
        },
        {
          "internalType": "address",
          "name": "operator",
          "type": "address"
        }
      ],
      "name": "isApprovedForAll",
      "outputs": [
        {
          "internalType": "bool",
          "name": "",
          "type": "bool"
        }
      ],
      "stateMutability": "view",
      "type": "function",
      "constant": true
    },
    {
      "inputs": [],
      "name": "listingPrice",
      "outputs": [
        {
          "internalType": "uint256",
          "name": "",
          "type": "uint256"
        }
      ],
      "stateMutability": "view",
      "type": "function",
      "constant": true
    },
    {
      "inputs": [],
      "name": "name",
      "outputs": [
        {
          "internalType": "string",
          "name": "",
          "type": "string"
        }
      ],
      "stateMutability": "view",
      "type": "function",
      "constant": true
    },
    {
      "inputs": [],
      "name": "owner",
      "outputs": [
        {
          "internalType": "address",
          "name": "",
          "type": "address"
        }
      ],
      "stateMutability": "view",
      "type": "function",
      "constant": true
    },
    {
      "inputs": [
        {
          "internalType": "uint256",
          "name": "tokenId",
          "type": "uint256"
        }
      ],
      "name": "ownerOf",
      "outputs": [
        {
          "internalType": "address",
          "name": "",
          "type": "address"
        }
      ],
      "stateMutability": "view",
      "type": "function",
      "constant": true
    },
    {
      "inputs": [],
      "name": "renounceOwnership",
      "outputs": [],
      "stateMutability": "nonpayable",
      "type": "function"
    },
    {
      "inputs": [
        {
          "internalType": "address",
          "name": "from",
          "type": "address"
        },
        {
          "internalType": "address",
          "name": "to",
          "type": "address"
        },
        {
          "internalType": "uint256",
          "name": "tokenId",
          "type": "uint256"
        }
      ],
      "name": "safeTransferFrom",
      "outputs": [],
      "stateMutability": "nonpayable",
      "type": "function"
    },
    {
      "inputs": [
        {
          "internalType": "address",
          "name": "from",
          "type": "address"
        },
        {
          "internalType": "address",
          "name": "to",
          "type": "address"
        },
        {
          "internalType": "uint256",
          "name": "tokenId",
          "type": "uint256"
        },
        {
          "internalType": "bytes",
          "name": "data",
          "type": "bytes"
        }
      ],
      "name": "safeTransferFrom",
      "outputs": [],
      "stateMutability": "nonpayable",
      "type": "function"
    },
    {
      "inputs": [
        {
          "internalType": "address",
          "name": "operator",
          "type": "address"
        },
        {
          "internalType": "bool",
          "name": "approved",
          "type": "bool"
        }
      ],
      "name": "setApprovalForAll",
      "outputs": [],
      "stateMutability": "nonpayable",
      "type": "function"
    },
    {
      "inputs": [
        {
          "internalType": "bytes4",
          "name": "interfaceId",
          "type": "bytes4"
        }
      ],
      "name": "supportsInterface",
      "outputs": [
        {
          "internalType": "bool",
          "name": "",
          "type": "bool"
        }
      ],
      "stateMutability": "view",
      "type": "function",
      "constant": true
    },
    {
      "inputs": [],
      "name": "symbol",
      "outputs": [
        {
          "internalType": "string",
          "name": "",
          "type": "string"
        }
      ],
      "stateMutability": "view",
      "type": "function",
      "constant": true
    },
    {
      "inputs": [
        {
          "internalType": "uint256",
          "name": "tokenId",
          "type": "uint256"
        }
      ],
      "name": "tokenURI",
      "outputs": [
        {
          "internalType": "string",
          "name": "",
          "type": "string"
        }
      ],
      "stateMutability": "view",
      "type": "function",
      "constant": true
    },
    {
      "inputs": [
        {
          "internalType": "address",
          "name": "from",
          "type": "address"
        },
        {
          "internalType": "address",
          "name": "to",
          "type": "address"
        },
        {
          "internalType": "uint256",
          "name": "tokenId",
          "type": "uint256"
        }
      ],
      "name": "transferFrom",
      "outputs": [],
      "stateMutability": "nonpayable",
      "type": "function"
    },
    {
      "inputs": [
        {
          "internalType": "address",
          "name": "newOwner",
          "type": "address"
        }
      ],
      "name": "transferOwnership",
      "outputs": [],
      "stateMutability": "nonpayable",
      "type": "function"
    },
    {
      "inputs": [
        {
          "internalType": "uint256",
          "name": "newPrice",
          "type": "uint256"
        }
      ],
      "name": "setListingPrice",
      "outputs": [],
      "stateMutability": "nonpayable",
      "type": "function"
    },
    {
      "inputs": [
        {
          "internalType": "uint256",
          "name": "tokenId",
          "type": "uint256"
        }
      ],
      "name": "getNftItem",
      "outputs": [
        {
          "components": [
            {
              "internalType": "uint256",
              "name": "tokenId",
              "type": "uint256"
            },
            {
              "internalType": "uint256",
              "name": "price",
              "type": "uint256"
            },
            {
              "internalType": "address",
              "name": "creator",
              "type": "address"
            },
            {
              "internalType": "bool",
              "name": "isListed",
              "type": "bool"
            }
          ],
          "internalType": "struct NftMarket.NftItem",
          "name": "",
          "type": "tuple"
        }
      ],
      "stateMutability": "view",
      "type": "function",
      "constant": true
    },
    {
      "inputs": [],
      "name": "listedItemsCount",
      "outputs": [
        {
          "internalType": "uint256",
          "name": "",
          "type": "uint256"
        }
      ],
      "stateMutability": "view",
      "type": "function",
      "constant": true
    },
    {
      "inputs": [
        {
          "internalType": "string",
          "name": "tokenURI",
          "type": "string"
        }
      ],
      "name": "tokenURIExists",
      "outputs": [
        {
          "internalType": "bool",
          "name": "",
          "type": "bool"
        }
      ],
      "stateMutability": "view",
      "type": "function",
      "constant": true
    },
    {
      "inputs": [],
      "name": "totalSupply",
      "outputs": [
        {
          "internalType": "uint256",
          "name": "",
          "type": "uint256"
        }
      ],
      "stateMutability": "view",
      "type": "function",
      "constant": true
    },
    {
      "inputs": [
        {
          "internalType": "uint256",
          "name": "index",
          "type": "uint256"
        }
      ],
      "name": "tokenByIndex",
      "outputs": [
        {
          "internalType": "uint256",
          "name": "",
          "type": "uint256"
        }
      ],
      "stateMutability": "view",
      "type": "function",
      "constant": true
    },
    {
      "inputs": [
        {
          "internalType": "address",
          "name": "owner",
          "type": "address"
        },
        {
          "internalType": "uint256",
          "name": "index",
          "type": "uint256"
        }
      ],
      "name": "tokenOfOwnerByIndex",
      "outputs": [
        {
          "internalType": "uint256",
          "name": "",
          "type": "uint256"
        }
      ],
      "stateMutability": "view",
      "type": "function",
      "constant": true
    },
    {
      "inputs": [],
      "name": "getAllNftsOnSale",
      "outputs": [
        {
          "components": [
            {
              "internalType": "uint256",
              "name": "tokenId",
              "type": "uint256"
            },
            {
              "internalType": "uint256",
              "name": "price",
              "type": "uint256"
            },
            {
              "internalType": "address",
              "name": "creator",
              "type": "address"
            },
            {
              "internalType": "bool",
              "name": "isListed",
              "type": "bool"
            }
          ],
          "internalType": "struct NftMarket.NftItem[]",
          "name": "",
          "type": "tuple[]"
        }
      ],
      "stateMutability": "view",
      "type": "function",
      "constant": true
    },
    {
      "inputs": [],
      "name": "getOwnedNfts",
      "outputs": [
        {
          "components": [
            {
              "internalType": "uint256",
              "name": "tokenId",
              "type": "uint256"
            },
            {
              "internalType": "uint256",
              "name": "price",
              "type": "uint256"
            },
            {
              "internalType": "address",
              "name": "creator",
              "type": "address"
            },
            {
              "internalType": "bool",
              "name": "isListed",
              "type": "bool"
            }
          ],
          "internalType": "struct NftMarket.NftItem[]",
          "name": "",
          "type": "tuple[]"
        }
      ],
      "stateMutability": "view",
      "type": "function",
      "constant": true
    },
    {
      "inputs": [
        {
          "internalType": "string",
          "name": "tokenURI",
          "type": "string"
        },
        {
          "internalType": "uint256",
          "name": "price",
          "type": "uint256"
        }
      ],
      "name": "mintToken",
      "outputs": [
        {
          "internalType": "uint256",
          "name": "",
          "type": "uint256"
        }
      ],
      "stateMutability": "payable",
      "type": "function",
      "payable": true
    },
    {
      "inputs": [
        {
          "internalType": "uint256",
          "name": "tokenId",
          "type": "uint256"
        }
      ],
      "name": "buyNft",
      "outputs": [],
      "stateMutability": "payable",
      "type": "function",
      "payable": true
    },
    {
      "inputs": [
        {
          "internalType": "uint256",
          "name": "tokenId",
          "type": "uint256"
        },
        {
          "internalType": "uint256",
          "name": "newPrice",
          "type": "uint256"
        }
      ],
      "name": "placeNftOnSale",
      "outputs": [],
      "stateMutability": "payable",
      "type": "function",
      "payable": true
    }
  ],
  "bytecode": "0x60806040526658d15e176280006008553480156200001c57600080fd5b506040518060400160405280600a81526020017f50756d706b696e4e4654000000000000000000000000000000000000000000008152506040518060400160405280600481526020017f504e4654000000000000000000000000000000000000000000000000000000008152508160009080519060200190620000a1929190620001b1565b508060019080519060200190620000ba929190620001b1565b505050620000dd620000d1620000e360201b60201c565b620000eb60201b60201c565b620002c6565b600033905090565b6000600760009054906101000a900473ffffffffffffffffffffffffffffffffffffffff16905081600760006101000a81548173ffffffffffffffffffffffffffffffffffffffff021916908373ffffffffffffffffffffffffffffffffffffffff1602179055508173ffffffffffffffffffffffffffffffffffffffff168173ffffffffffffffffffffffffffffffffffffffff167f8be0079c531659141344cd1fd0a4f28419497f9722a3daafe3b4186f6b6457e060405160405180910390a35050565b828054620001bf9062000261565b90600052602060002090601f016020900481019282620001e357600085556200022f565b82601f10620001fe57805160ff19168380011785556200022f565b828001600101855582156200022f579182015b828111156200022e57825182559160200191906001019062000211565b5b5090506200023e919062000242565b5090565b5b808211156200025d57600081600090555060010162000243565b5090565b600060028204905060018216806200027a57607f821691505b6020821081141562000291576200029062000297565b5b50919050565b7f4e487b7100000000000000000000000000000000000000000000000000000000600052602260045260246000fd5b61470380620002d66000396000f3fe6080604052600436106101c25760003560e01c80636f1a0af5116100f7578063a22cb46511610095578063c87b56dd11610064578063c87b56dd14610651578063ccb4918d1461068e578063e985e9c5146106b9578063f2fde38b146106f6576101c2565b8063a22cb465146105a4578063b88d4fde146105cd578063c046372c146105f6578063c78f19f914610626576101c2565b8063715018a6116100d1578063715018a61461050e5780637c726b69146105255780638da5cb5b1461054e57806395d89b4114610579576101c2565b80636f1a0af51461046957806370a08231146104a657806370cbcb43146104e3576101c2565b8063243adbdd1161016457806342842e0e1161013e57806342842e0e1461038957806343d32ae7146103b25780634f6ccce7146103ef5780636352211e1461042c576101c2565b8063243adbdd146103055780632f745c591461032157806336b536be1461035e576101c2565b8063095ea7b3116101a0578063095ea7b31461026c57806318160ddd1461029557806321f422e5146102c057806323b872dd146102dc576101c2565b806301ffc9a7146101c757806306fdde0314610204578063081812fc1461022f575b600080fd5b3480156101d357600080fd5b506101ee60048036038101906101e9919061323e565b61071f565b6040516101fb9190613990565b60405180910390f35b34801561021057600080fd5b50610219610801565b60405161022691906139ab565b60405180910390f35b34801561023b57600080fd5b5061025660048036038101906102519190613325565b610893565b6040516102639190613907565b60405180910390f35b34801561027857600080fd5b50610293600480360381019061028e9190613202565b6108d9565b005b3480156102a157600080fd5b506102aa6109f1565b6040516102b79190613cc8565b60405180910390f35b6102da60048036038101906102d5919061334e565b6109fe565b005b3480156102e857600080fd5b5061030360048036038101906102fe91906130fc565b610b7a565b005b61031f600480360381019061031a9190613325565b610bda565b005b34801561032d57600080fd5b5061034860048036038101906103439190613202565b610d43565b6040516103559190613cc8565b60405180910390f35b34801561036a57600080fd5b50610373610de8565b604051610380919061396e565b60405180910390f35b34801561039557600080fd5b506103b060048036038101906103ab91906130fc565b610fcf565b005b3480156103be57600080fd5b506103d960048036038101906103d49190613290565b610fef565b6040516103e69190613990565b60405180910390f35b3480156103fb57600080fd5b5061041660048036038101906104119190613325565b61102b565b6040516104239190613cc8565b60405180910390f35b34801561043857600080fd5b50610453600480360381019061044e9190613325565b6110c2565b6040516104609190613907565b60405180910390f35b34801561047557600080fd5b50610490600480360381019061048b9190613325565b611174565b60405161049d9190613cad565b60405180910390f35b3480156104b257600080fd5b506104cd60048036038101906104c89190613097565b611226565b6040516104da9190613cc8565b60405180910390f35b3480156104ef57600080fd5b506104f86112de565b604051610505919061396e565b60405180910390f35b34801561051a57600080fd5b5061052361148e565b005b34801561053157600080fd5b5061054c60048036038101906105479190613325565b6114a2565b005b34801561055a57600080fd5b506105636114f7565b6040516105709190613907565b60405180910390f35b34801561058557600080fd5b5061058e611521565b60405161059b91906139ab565b60405180910390f35b3480156105b057600080fd5b506105cb60048036038101906105c691906131c6565b6115b3565b005b3480156105d957600080fd5b506105f460048036038101906105ef919061314b565b6115c9565b005b610610600480360381019061060b91906132d1565b61162b565b60405161061d9190613cc8565b60405180910390f35b34801561063257600080fd5b5061063b61173b565b6040516106489190613cc8565b60405180910390f35b34801561065d57600080fd5b5061067860048036038101906106739190613325565b611741565b60405161068591906139ab565b60405180910390f35b34801561069a57600080fd5b506106a3611854565b6040516106b09190613cc8565b60405180910390f35b3480156106c557600080fd5b506106e060048036038101906106db91906130c0565b611865565b6040516106ed9190613990565b60405180910390f35b34801561070257600080fd5b5061071d60048036038101906107189190613097565b6118f9565b005b60007f80ac58cd000000000000000000000000000000000000000000000000000000007bffffffffffffffffffffffffffffffffffffffffffffffffffffffff1916827bffffffffffffffffffffffffffffffffffffffffffffffffffffffff191614806107ea57507f5b5e139f000000000000000000000000000000000000000000000000000000007bffffffffffffffffffffffffffffffffffffffffffffffffffffffff1916827bffffffffffffffffffffffffffffffffffffffffffffffffffffffff1916145b806107fa57506107f98261197d565b5b9050919050565b60606000805461081090613f9c565b80601f016020809104026020016040519081016040528092919081815260200182805461083c90613f9c565b80156108895780601f1061085e57610100808354040283529160200191610889565b820191906000526020600020905b81548152906001019060200180831161086c57829003601f168201915b5050505050905090565b600061089e826119e7565b6004600083815260200190815260200160002060009054906101000a900473ffffffffffffffffffffffffffffffffffffffff169050919050565b60006108e4826110c2565b90508073ffffffffffffffffffffffffffffffffffffffff168373ffffffffffffffffffffffffffffffffffffffff161415610955576040517f08c379a000000000000000000000000000000000000000000000000000000000815260040161094c90613c0d565b60405180910390fd5b8073ffffffffffffffffffffffffffffffffffffffff16610974611a32565b73ffffffffffffffffffffffffffffffffffffffff1614806109a357506109a28161099d611a32565b611865565b5b6109e2576040517f08c379a00000000000000000000000000000000000000000000000000000000081526004016109d990613b8d565b60405180910390fd5b6109ec8383611a3a565b505050565b6000600f80549050905090565b3373ffffffffffffffffffffffffffffffffffffffff16610a1e836110c2565b73ffffffffffffffffffffffffffffffffffffffff1614610a74576040517f08c379a0000000000000000000000000000000000000000000000000000000008152600401610a6b90613b0d565b60405180910390fd5b60001515600c600084815260200190815260200160002060020160149054906101000a900460ff16151514610ade576040517f08c379a0000000000000000000000000000000000000000000000000000000008152600401610ad590613b6d565b60405180910390fd5b6008543414610b22576040517f08c379a0000000000000000000000000000000000000000000000000000000008152600401610b1990613c2d565b60405180910390fd5b6001600c600084815260200190815260200160002060020160146101000a81548160ff02191690831515021790555080600c600084815260200190815260200160002060010181905550610b766009611af3565b5050565b610b8b610b85611a32565b82611b09565b610bca576040517f08c379a0000000000000000000000000000000000000000000000000000000008152600401610bc190613c6d565b60405180910390fd5b610bd5838383611b9e565b505050565b6000600c60008381526020019081526020016000206001015490506000610c00836110c2565b90508073ffffffffffffffffffffffffffffffffffffffff163373ffffffffffffffffffffffffffffffffffffffff161415610c71576040517f08c379a0000000000000000000000000000000000000000000000000000000008152600401610c6890613aed565b60405180910390fd5b813414610cb3576040517f08c379a0000000000000000000000000000000000000000000000000000000008152600401610caa90613a2d565b60405180910390fd5b6000600c600085815260200190815260200160002060020160146101000a81548160ff021916908315150217905550610cec6009611e05565b610cf7813385611b9e565b8073ffffffffffffffffffffffffffffffffffffffff166108fc349081150290604051600060405180830381858888f19350505050158015610d3d573d6000803e3d6000fd5b50505050565b6000610d4e83611226565b8210610d8f576040517f08c379a0000000000000000000000000000000000000000000000000000000008152600401610d8690613c4d565b60405180910390fd5b600d60008473ffffffffffffffffffffffffffffffffffffffff1673ffffffffffffffffffffffffffffffffffffffff168152602001908152602001600020600083815260200190815260200160002054905092915050565b60606000610df46109f1565b9050600080610e036009611e61565b67ffffffffffffffff811115610e42577f4e487b7100000000000000000000000000000000000000000000000000000000600052604160045260246000fd5b604051908082528060200260200182016040528015610e7b57816020015b610e68612e7b565b815260200190600190039081610e605790505b50905060005b83811015610fc5576000610e948261102b565b90506000600c60008381526020019081526020016000209050600115158160020160149054906101000a900460ff1615151415610fb0578060405180608001604052908160008201548152602001600182015481526020016002820160009054906101000a900473ffffffffffffffffffffffffffffffffffffffff1673ffffffffffffffffffffffffffffffffffffffff1673ffffffffffffffffffffffffffffffffffffffff1681526020016002820160149054906101000a900460ff161515151581525050848681518110610f95577f4e487b7100000000000000000000000000000000000000000000000000000000600052603260045260246000fd5b6020026020010181905250600185610fad9190613e2b565b94505b50508080610fbd90613fff565b915050610e81565b5080935050505090565b610fea838383604051806020016040528060008152506115c9565b505050565b600060011515600b8360405161100591906138cc565b908152602001604051809103902060009054906101000a900460ff161515149050919050565b60006110356109f1565b8210611076576040517f08c379a000000000000000000000000000000000000000000000000000000000815260040161106d90613c4d565b60405180910390fd5b600f82815481106110b0577f4e487b7100000000000000000000000000000000000000000000000000000000600052603260045260246000fd5b90600052602060002001549050919050565b6000806002600084815260200190815260200160002060009054906101000a900473ffffffffffffffffffffffffffffffffffffffff169050600073ffffffffffffffffffffffffffffffffffffffff168173ffffffffffffffffffffffffffffffffffffffff16141561116b576040517f08c379a000000000000000000000000000000000000000000000000000000000815260040161116290613bed565b60405180910390fd5b80915050919050565b61117c612e7b565b600c600083815260200190815260200160002060405180608001604052908160008201548152602001600182015481526020016002820160009054906101000a900473ffffffffffffffffffffffffffffffffffffffff1673ffffffffffffffffffffffffffffffffffffffff1673ffffffffffffffffffffffffffffffffffffffff1681526020016002820160149054906101000a900460ff1615151515815250509050919050565b60008073ffffffffffffffffffffffffffffffffffffffff168273ffffffffffffffffffffffffffffffffffffffff161415611297576040517f08c379a000000000000000000000000000000000000000000000000000000000815260040161128e90613b2d565b60405180910390fd5b600360008373ffffffffffffffffffffffffffffffffffffffff1673ffffffffffffffffffffffffffffffffffffffff168152602001908152602001600020549050919050565b606060006112eb33611226565b905060008167ffffffffffffffff81111561132f577f4e487b7100000000000000000000000000000000000000000000000000000000600052604160045260246000fd5b60405190808252806020026020018201604052801561136857816020015b611355612e7b565b81526020019060019003908161134d5790505b50905060005b828110156114855760006113823383610d43565b90506000600c600083815260200190815260200160002090508060405180608001604052908160008201548152602001600182015481526020016002820160009054906101000a900473ffffffffffffffffffffffffffffffffffffffff1673ffffffffffffffffffffffffffffffffffffffff1673ffffffffffffffffffffffffffffffffffffffff1681526020016002820160149054906101000a900460ff161515151581525050848481518110611465577f4e487b7100000000000000000000000000000000000000000000000000000000600052603260045260246000fd5b60200260200101819052505050808061147d90613fff565b91505061136e565b50809250505090565b611496611e6f565b6114a06000611eed565b565b6114aa611e6f565b600081116114ed576040517f08c379a00000000000000000000000000000000000000000000000000000000081526004016114e490613c8d565b60405180910390fd5b8060088190555050565b6000600760009054906101000a900473ffffffffffffffffffffffffffffffffffffffff16905090565b60606001805461153090613f9c565b80601f016020809104026020016040519081016040528092919081815260200182805461155c90613f9c565b80156115a95780601f1061157e576101008083540402835291602001916115a9565b820191906000526020600020905b81548152906001019060200180831161158c57829003601f168201915b5050505050905090565b6115c56115be611a32565b8383611fb3565b5050565b6115da6115d4611a32565b83611b09565b611619576040517f08c379a000000000000000000000000000000000000000000000000000000000815260040161161090613c6d565b60405180910390fd5b61162584848484612120565b50505050565b600061163683610fef565b15611676576040517f08c379a000000000000000000000000000000000000000000000000000000000815260040161166d90613acd565b60405180910390fd5b60085434146116ba576040517f08c379a00000000000000000000000000000000000000000000000000000000081526004016116b190613c2d565b60405180910390fd5b6116c4600a611af3565b6116ce6009611af3565b60006116da600a611e61565b90506116e6338261217c565b6116f0818561219a565b6116fa818461220e565b6001600b8560405161170c91906138cc565b908152602001604051809103902060006101000a81548160ff0219169083151502179055508091505092915050565b60085481565b606061174c826119e7565b600060066000848152602001908152602001600020805461176c90613f9c565b80601f016020809104026020016040519081016040528092919081815260200182805461179890613f9c565b80156117e55780601f106117ba576101008083540402835291602001916117e5565b820191906000526020600020905b8154815290600101906020018083116117c857829003601f168201915b5050505050905060006117f661235e565b905060008151141561180c57819250505061184f565b6000825111156118415780826040516020016118299291906138e3565b6040516020818303038152906040529250505061184f565b61184a84612375565b925050505b919050565b60006118606009611e61565b905090565b6000600560008473ffffffffffffffffffffffffffffffffffffffff1673ffffffffffffffffffffffffffffffffffffffff16815260200190815260200160002060008373ffffffffffffffffffffffffffffffffffffffff1673ffffffffffffffffffffffffffffffffffffffff16815260200190815260200160002060009054906101000a900460ff16905092915050565b611901611e6f565b600073ffffffffffffffffffffffffffffffffffffffff168173ffffffffffffffffffffffffffffffffffffffff161415611971576040517f08c379a000000000000000000000000000000000000000000000000000000000815260040161196890613a0d565b60405180910390fd5b61197a81611eed565b50565b60007f01ffc9a7000000000000000000000000000000000000000000000000000000007bffffffffffffffffffffffffffffffffffffffffffffffffffffffff1916827bffffffffffffffffffffffffffffffffffffffffffffffffffffffff1916149050919050565b6119f0816123dd565b611a2f576040517f08c379a0000000000000000000000000000000000000000000000000000000008152600401611a2690613bed565b60405180910390fd5b50565b600033905090565b816004600083815260200190815260200160002060006101000a81548173ffffffffffffffffffffffffffffffffffffffff021916908373ffffffffffffffffffffffffffffffffffffffff160217905550808273ffffffffffffffffffffffffffffffffffffffff16611aad836110c2565b73ffffffffffffffffffffffffffffffffffffffff167f8c5be1e5ebec7d5bd14f71427d1e84f3dd0314c0f7b2291e5b200ac8c7c3b92560405160405180910390a45050565b6001816000016000828254019250508190555050565b600080611b15836110c2565b90508073ffffffffffffffffffffffffffffffffffffffff168473ffffffffffffffffffffffffffffffffffffffff161480611b575750611b568185611865565b5b80611b9557508373ffffffffffffffffffffffffffffffffffffffff16611b7d84610893565b73ffffffffffffffffffffffffffffffffffffffff16145b91505092915050565b8273ffffffffffffffffffffffffffffffffffffffff16611bbe826110c2565b73ffffffffffffffffffffffffffffffffffffffff1614611c14576040517f08c379a0000000000000000000000000000000000000000000000000000000008152600401611c0b90613a4d565b60405180910390fd5b600073ffffffffffffffffffffffffffffffffffffffff168273ffffffffffffffffffffffffffffffffffffffff161415611c84576040517f08c379a0000000000000000000000000000000000000000000000000000000008152600401611c7b90613a8d565b60405180910390fd5b611c8f838383612449565b611c9a600082611a3a565b6001600360008573ffffffffffffffffffffffffffffffffffffffff1673ffffffffffffffffffffffffffffffffffffffff1681526020019081526020016000206000828254611cea9190613eb2565b925050819055506001600360008473ffffffffffffffffffffffffffffffffffffffff1673ffffffffffffffffffffffffffffffffffffffff1681526020019081526020016000206000828254611d419190613e2b565b92505081905550816002600083815260200190815260200160002060006101000a81548173ffffffffffffffffffffffffffffffffffffffff021916908373ffffffffffffffffffffffffffffffffffffffff160217905550808273ffffffffffffffffffffffffffffffffffffffff168473ffffffffffffffffffffffffffffffffffffffff167fddf252ad1be2c89b69c2b068fc378daa952ba7f163c4a11628f55a4df523b3ef60405160405180910390a4611e0083838361255d565b505050565b60008160000154905060008111611e51576040517f08c379a0000000000000000000000000000000000000000000000000000000008152600401611e48906139cd565b60405180910390fd5b6001810382600001819055505050565b600081600001549050919050565b611e77611a32565b73ffffffffffffffffffffffffffffffffffffffff16611e956114f7565b73ffffffffffffffffffffffffffffffffffffffff1614611eeb576040517f08c379a0000000000000000000000000000000000000000000000000000000008152600401611ee290613bcd565b60405180910390fd5b565b6000600760009054906101000a900473ffffffffffffffffffffffffffffffffffffffff16905081600760006101000a81548173ffffffffffffffffffffffffffffffffffffffff021916908373ffffffffffffffffffffffffffffffffffffffff1602179055508173ffffffffffffffffffffffffffffffffffffffff168173ffffffffffffffffffffffffffffffffffffffff167f8be0079c531659141344cd1fd0a4f28419497f9722a3daafe3b4186f6b6457e060405160405180910390a35050565b8173ffffffffffffffffffffffffffffffffffffffff168373ffffffffffffffffffffffffffffffffffffffff161415612022576040517f08c379a000000000000000000000000000000000000000000000000000000000815260040161201990613aad565b60405180910390fd5b80600560008573ffffffffffffffffffffffffffffffffffffffff1673ffffffffffffffffffffffffffffffffffffffff16815260200190815260200160002060008473ffffffffffffffffffffffffffffffffffffffff1673ffffffffffffffffffffffffffffffffffffffff16815260200190815260200160002060006101000a81548160ff0219169083151502179055508173ffffffffffffffffffffffffffffffffffffffff168373ffffffffffffffffffffffffffffffffffffffff167f17307eab39ab6107e8899845ad3d59bd9653f200f220920489ca2b5937696c31836040516121139190613990565b60405180910390a3505050565b61212b848484611b9e565b61213784848484612562565b612176576040517f08c379a000000000000000000000000000000000000000000000000000000000815260040161216d906139ed565b60405180910390fd5b50505050565b6121968282604051806020016040528060008152506126f9565b5050565b6121a3826123dd565b6121e2576040517f08c379a00000000000000000000000000000000000000000000000000000000081526004016121d990613b4d565b60405180910390fd5b80600660008481526020019081526020016000209080519060200190612209929190612ebb565b505050565b60008111612251576040517f08c379a000000000000000000000000000000000000000000000000000000000815260040161224890613c8d565b60405180910390fd5b60405180608001604052808381526020018281526020013373ffffffffffffffffffffffffffffffffffffffff16815260200160011515815250600c6000848152602001908152602001600020600082015181600001556020820151816001015560408201518160020160006101000a81548173ffffffffffffffffffffffffffffffffffffffff021916908373ffffffffffffffffffffffffffffffffffffffff16021790555060608201518160020160146101000a81548160ff0219169083151502179055509050507f470031062672bc0246e132c723a729c4676710ec663a29e86c88678032daddea82823360016040516123529493929190613ce3565b60405180910390a15050565b606060405180602001604052806000815250905090565b6060612380826119e7565b600061238a61235e565b905060008151116123aa57604051806020016040528060008152506123d5565b806123b484612754565b6040516020016123c59291906138e3565b6040516020818303038152906040525b915050919050565b60008073ffffffffffffffffffffffffffffffffffffffff166002600084815260200190815260200160002060009054906101000a900473ffffffffffffffffffffffffffffffffffffffff1673ffffffffffffffffffffffffffffffffffffffff1614159050919050565b612454838383612901565b600073ffffffffffffffffffffffffffffffffffffffff168373ffffffffffffffffffffffffffffffffffffffff1614156124975761249281612906565b6124d6565b8173ffffffffffffffffffffffffffffffffffffffff168373ffffffffffffffffffffffffffffffffffffffff16146124d5576124d4838261294f565b5b5b600073ffffffffffffffffffffffffffffffffffffffff168273ffffffffffffffffffffffffffffffffffffffff1614156125195761251481612abc565b612558565b8273ffffffffffffffffffffffffffffffffffffffff168273ffffffffffffffffffffffffffffffffffffffff1614612557576125568282612bff565b5b5b505050565b505050565b60006125838473ffffffffffffffffffffffffffffffffffffffff16612c7e565b156126ec578373ffffffffffffffffffffffffffffffffffffffff1663150b7a026125ac611a32565b8786866040518563ffffffff1660e01b81526004016125ce9493929190613922565b602060405180830381600087803b1580156125e857600080fd5b505af192505050801561261957506040513d601f19601f820116820180604052508101906126169190613267565b60015b61269c573d8060008114612649576040519150601f19603f3d011682016040523d82523d6000602084013e61264e565b606091505b50600081511415612694576040517f08c379a000000000000000000000000000000000000000000000000000000000815260040161268b906139ed565b60405180910390fd5b805181602001fd5b63150b7a0260e01b7bffffffffffffffffffffffffffffffffffffffffffffffffffffffff1916817bffffffffffffffffffffffffffffffffffffffffffffffffffffffff1916149150506126f1565b600190505b949350505050565b6127038383612ca1565b6127106000848484612562565b61274f576040517f08c379a0000000000000000000000000000000000000000000000000000000008152600401612746906139ed565b60405180910390fd5b505050565b6060600082141561279c576040518060400160405280600181526020017f300000000000000000000000000000000000000000000000000000000000000081525090506128fc565b600082905060005b600082146127ce5780806127b790613fff565b915050600a826127c79190613e81565b91506127a4565b60008167ffffffffffffffff811115612810577f4e487b7100000000000000000000000000000000000000000000000000000000600052604160045260246000fd5b6040519080825280601f01601f1916602001820160405280156128425781602001600182028036833780820191505090505b5090505b600085146128f55760018261285b9190613eb2565b9150600a8561286a9190614048565b60306128769190613e2b565b60f81b8183815181106128b2577f4e487b7100000000000000000000000000000000000000000000000000000000600052603260045260246000fd5b60200101907effffffffffffffffffffffffffffffffffffffffffffffffffffffffffffff1916908160001a905350600a856128ee9190613e81565b9450612846565b8093505050505b919050565b505050565b600f805490506010600083815260200190815260200160002081905550600f81908060018154018082558091505060019003906000526020600020016000909190919091505550565b6000600161295c84611226565b6129669190613eb2565b90506000600e6000848152602001908152602001600020549050818114612a4b576000600d60008673ffffffffffffffffffffffffffffffffffffffff1673ffffffffffffffffffffffffffffffffffffffff168152602001908152602001600020600084815260200190815260200160002054905080600d60008773ffffffffffffffffffffffffffffffffffffffff1673ffffffffffffffffffffffffffffffffffffffff16815260200190815260200160002060008481526020019081526020016000208190555081600e600083815260200190815260200160002081905550505b600e600084815260200190815260200160002060009055600d60008573ffffffffffffffffffffffffffffffffffffffff1673ffffffffffffffffffffffffffffffffffffffff16815260200190815260200160002060008381526020019081526020016000206000905550505050565b60006001600f80549050612ad09190613eb2565b90506000601060008481526020019081526020016000205490506000600f8381548110612b26577f4e487b7100000000000000000000000000000000000000000000000000000000600052603260045260246000fd5b9060005260206000200154905080600f8381548110612b6e577f4e487b7100000000000000000000000000000000000000000000000000000000600052603260045260246000fd5b90600052602060002001819055508160106000838152602001908152602001600020819055506010600085815260200190815260200160002060009055600f805480612be3577f4e487b7100000000000000000000000000000000000000000000000000000000600052603160045260246000fd5b6001900381819060005260206000200160009055905550505050565b6000612c0a83611226565b905081600d60008573ffffffffffffffffffffffffffffffffffffffff1673ffffffffffffffffffffffffffffffffffffffff16815260200190815260200160002060008381526020019081526020016000208190555080600e600084815260200190815260200160002081905550505050565b6000808273ffffffffffffffffffffffffffffffffffffffff163b119050919050565b600073ffffffffffffffffffffffffffffffffffffffff168273ffffffffffffffffffffffffffffffffffffffff161415612d11576040517f08c379a0000000000000000000000000000000000000000000000000000000008152600401612d0890613bad565b60405180910390fd5b612d1a816123dd565b15612d5a576040517f08c379a0000000000000000000000000000000000000000000000000000000008152600401612d5190613a6d565b60405180910390fd5b612d6660008383612449565b6001600360008473ffffffffffffffffffffffffffffffffffffffff1673ffffffffffffffffffffffffffffffffffffffff1681526020019081526020016000206000828254612db69190613e2b565b92505081905550816002600083815260200190815260200160002060006101000a81548173ffffffffffffffffffffffffffffffffffffffff021916908373ffffffffffffffffffffffffffffffffffffffff160217905550808273ffffffffffffffffffffffffffffffffffffffff16600073ffffffffffffffffffffffffffffffffffffffff167fddf252ad1be2c89b69c2b068fc378daa952ba7f163c4a11628f55a4df523b3ef60405160405180910390a4612e776000838361255d565b5050565b60405180608001604052806000815260200160008152602001600073ffffffffffffffffffffffffffffffffffffffff1681526020016000151581525090565b828054612ec790613f9c565b90600052602060002090601f016020900481019282612ee95760008555612f30565b82601f10612f0257805160ff1916838001178555612f30565b82800160010185558215612f30579182015b82811115612f2f578251825591602001919060010190612f14565b5b509050612f3d9190612f41565b5090565b5b80821115612f5a576000816000905550600101612f42565b5090565b6000612f71612f6c84613d4d565b613d28565b905082815260208101848484011115612f8957600080fd5b612f94848285613f5a565b509392505050565b6000612faf612faa84613d7e565b613d28565b905082815260208101848484011115612fc757600080fd5b612fd2848285613f5a565b509392505050565b600081359050612fe981614671565b92915050565b600081359050612ffe81614688565b92915050565b6000813590506130138161469f565b92915050565b6000815190506130288161469f565b92915050565b600082601f83011261303f57600080fd5b813561304f848260208601612f5e565b91505092915050565b600082601f83011261306957600080fd5b8135613079848260208601612f9c565b91505092915050565b600081359050613091816146b6565b92915050565b6000602082840312156130a957600080fd5b60006130b784828501612fda565b91505092915050565b600080604083850312156130d357600080fd5b60006130e185828601612fda565b92505060206130f285828601612fda565b9150509250929050565b60008060006060848603121561311157600080fd5b600061311f86828701612fda565b935050602061313086828701612fda565b925050604061314186828701613082565b9150509250925092565b6000806000806080858703121561316157600080fd5b600061316f87828801612fda565b945050602061318087828801612fda565b935050604061319187828801613082565b925050606085013567ffffffffffffffff8111156131ae57600080fd5b6131ba8782880161302e565b91505092959194509250565b600080604083850312156131d957600080fd5b60006131e785828601612fda565b92505060206131f885828601612fef565b9150509250929050565b6000806040838503121561321557600080fd5b600061322385828601612fda565b925050602061323485828601613082565b9150509250929050565b60006020828403121561325057600080fd5b600061325e84828501613004565b91505092915050565b60006020828403121561327957600080fd5b600061328784828501613019565b91505092915050565b6000602082840312156132a257600080fd5b600082013567ffffffffffffffff8111156132bc57600080fd5b6132c884828501613058565b91505092915050565b600080604083850312156132e457600080fd5b600083013567ffffffffffffffff8111156132fe57600080fd5b61330a85828601613058565b925050602061331b85828601613082565b9150509250929050565b60006020828403121561333757600080fd5b600061334584828501613082565b91505092915050565b6000806040838503121561336157600080fd5b600061336f85828601613082565b925050602061338085828601613082565b9150509250929050565b60006133968383613804565b60808301905092915050565b6133ab81613ee6565b82525050565b6133ba81613ee6565b82525050565b60006133cb82613dbf565b6133d58185613ded565b93506133e083613daf565b8060005b838110156134115781516133f8888261338a565b975061340383613de0565b9250506001810190506133e4565b5085935050505092915050565b61342781613ef8565b82525050565b61343681613ef8565b82525050565b600061344782613dca565b6134518185613dfe565b9350613461818560208601613f69565b61346a81614135565b840191505092915050565b600061348082613dd5565b61348a8185613e0f565b935061349a818560208601613f69565b6134a381614135565b840191505092915050565b60006134b982613dd5565b6134c38185613e20565b93506134d3818560208601613f69565b80840191505092915050565b60006134ec601b83613e0f565b91506134f782614146565b602082019050919050565b600061350f603283613e0f565b915061351a8261416f565b604082019050919050565b6000613532602683613e0f565b915061353d826141be565b604082019050919050565b6000613555601e83613e0f565b91506135608261420d565b602082019050919050565b6000613578602583613e0f565b915061358382614236565b604082019050919050565b600061359b601c83613e0f565b91506135a682614285565b602082019050919050565b60006135be602483613e0f565b91506135c9826142ae565b604082019050919050565b60006135e1601983613e0f565b91506135ec826142fd565b602082019050919050565b6000613604601883613e0f565b915061360f82614326565b602082019050919050565b6000613627601883613e0f565b91506136328261434f565b602082019050919050565b600061364a601d83613e0f565b915061365582614378565b602082019050919050565b600061366d602983613e0f565b9150613678826143a1565b604082019050919050565b6000613690602e83613e0f565b915061369b826143f0565b604082019050919050565b60006136b3601783613e0f565b91506136be8261443f565b602082019050919050565b60006136d6603e83613e0f565b91506136e182614468565b604082019050919050565b60006136f9602083613e0f565b9150613704826144b7565b602082019050919050565b600061371c602083613e0f565b9150613727826144e0565b602082019050919050565b600061373f601883613e0f565b915061374a82614509565b602082019050919050565b6000613762602183613e0f565b915061376d82614532565b604082019050919050565b6000613785602483613e0f565b915061379082614581565b604082019050919050565b60006137a8601383613e0f565b91506137b3826145d0565b602082019050919050565b60006137cb602e83613e0f565b91506137d6826145f9565b604082019050919050565b60006137ee601c83613e0f565b91506137f982614648565b602082019050919050565b60808201600082015161381a60008501826138ae565b50602082015161382d60208501826138ae565b50604082015161384060408501826133a2565b506060820151613853606085018261341e565b50505050565b60808201600082015161386f60008501826138ae565b50602082015161388260208501826138ae565b50604082015161389560408501826133a2565b5060608201516138a8606085018261341e565b50505050565b6138b781613f50565b82525050565b6138c681613f50565b82525050565b60006138d882846134ae565b915081905092915050565b60006138ef82856134ae565b91506138fb82846134ae565b91508190509392505050565b600060208201905061391c60008301846133b1565b92915050565b600060808201905061393760008301876133b1565b61394460208301866133b1565b61395160408301856138bd565b8181036060830152613963818461343c565b905095945050505050565b6000602082019050818103600083015261398881846133c0565b905092915050565b60006020820190506139a5600083018461342d565b92915050565b600060208201905081810360008301526139c58184613475565b905092915050565b600060208201905081810360008301526139e6816134df565b9050919050565b60006020820190508181036000830152613a0681613502565b9050919050565b60006020820190508181036000830152613a2681613525565b9050919050565b60006020820190508181036000830152613a4681613548565b9050919050565b60006020820190508181036000830152613a668161356b565b9050919050565b60006020820190508181036000830152613a868161358e565b9050919050565b60006020820190508181036000830152613aa6816135b1565b9050919050565b60006020820190508181036000830152613ac6816135d4565b9050919050565b60006020820190508181036000830152613ae6816135f7565b9050919050565b60006020820190508181036000830152613b068161361a565b9050919050565b60006020820190508181036000830152613b268161363d565b9050919050565b60006020820190508181036000830152613b4681613660565b9050919050565b60006020820190508181036000830152613b6681613683565b9050919050565b60006020820190508181036000830152613b86816136a6565b9050919050565b60006020820190508181036000830152613ba6816136c9565b9050919050565b60006020820190508181036000830152613bc6816136ec565b9050919050565b60006020820190508181036000830152613be68161370f565b9050919050565b60006020820190508181036000830152613c0681613732565b9050919050565b60006020820190508181036000830152613c2681613755565b9050919050565b60006020820190508181036000830152613c4681613778565b9050919050565b60006020820190508181036000830152613c668161379b565b9050919050565b60006020820190508181036000830152613c86816137be565b9050919050565b60006020820190508181036000830152613ca6816137e1565b9050919050565b6000608082019050613cc26000830184613859565b92915050565b6000602082019050613cdd60008301846138bd565b92915050565b6000608082019050613cf860008301876138bd565b613d0560208301866138bd565b613d1260408301856133b1565b613d1f606083018461342d565b95945050505050565b6000613d32613d43565b9050613d3e8282613fce565b919050565b6000604051905090565b600067ffffffffffffffff821115613d6857613d67614106565b5b613d7182614135565b9050602081019050919050565b600067ffffffffffffffff821115613d9957613d98614106565b5b613da282614135565b9050602081019050919050565b6000819050602082019050919050565b600081519050919050565b600081519050919050565b600081519050919050565b6000602082019050919050565b600082825260208201905092915050565b600082825260208201905092915050565b600082825260208201905092915050565b600081905092915050565b6000613e3682613f50565b9150613e4183613f50565b9250827fffffffffffffffffffffffffffffffffffffffffffffffffffffffffffffffff03821115613e7657613e75614079565b5b828201905092915050565b6000613e8c82613f50565b9150613e9783613f50565b925082613ea757613ea66140a8565b5b828204905092915050565b6000613ebd82613f50565b9150613ec883613f50565b925082821015613edb57613eda614079565b5b828203905092915050565b6000613ef182613f30565b9050919050565b60008115159050919050565b60007fffffffff0000000000000000000000000000000000000000000000000000000082169050919050565b600073ffffffffffffffffffffffffffffffffffffffff82169050919050565b6000819050919050565b82818337600083830152505050565b60005b83811015613f87578082015181840152602081019050613f6c565b83811115613f96576000848401525b50505050565b60006002820490506001821680613fb457607f821691505b60208210811415613fc857613fc76140d7565b5b50919050565b613fd782614135565b810181811067ffffffffffffffff82111715613ff657613ff5614106565b5b80604052505050565b600061400a82613f50565b91507fffffffffffffffffffffffffffffffffffffffffffffffffffffffffffffffff82141561403d5761403c614079565b5b600182019050919050565b600061405382613f50565b915061405e83613f50565b92508261406e5761406d6140a8565b5b828206905092915050565b7f4e487b7100000000000000000000000000000000000000000000000000000000600052601160045260246000fd5b7f4e487b7100000000000000000000000000000000000000000000000000000000600052601260045260246000fd5b7f4e487b7100000000000000000000000000000000000000000000000000000000600052602260045260246000fd5b7f4e487b7100000000000000000000000000000000000000000000000000000000600052604160045260246000fd5b6000601f19601f8301169050919050565b7f436f756e7465723a2064656372656d656e74206f766572666c6f770000000000600082015250565b7f4552433732313a207472616e7366657220746f206e6f6e20455243373231526560008201527f63656976657220696d706c656d656e7465720000000000000000000000000000602082015250565b7f4f776e61626c653a206e6577206f776e657220697320746865207a65726f206160008201527f6464726573730000000000000000000000000000000000000000000000000000602082015250565b7f506c65617365207375626d6974207468652061736b696e672070726963650000600082015250565b7f4552433732313a207472616e736665722066726f6d20696e636f72726563742060008201527f6f776e6572000000000000000000000000000000000000000000000000000000602082015250565b7f4552433732313a20746f6b656e20616c7265616479206d696e74656400000000600082015250565b7f4552433732313a207472616e7366657220746f20746865207a65726f2061646460008201527f7265737300000000000000000000000000000000000000000000000000000000602082015250565b7f4552433732313a20617070726f766520746f2063616c6c657200000000000000600082015250565b7f546f6b656e2055524920616c7265616479206578697374730000000000000000600082015250565b7f596f7520616c7265616479206f776e2074686973204e46540000000000000000600082015250565b7f596f7520617265206e6f74206f776e6572206f662074686973206e6674000000600082015250565b7f4552433732313a2061646472657373207a65726f206973206e6f74206120766160008201527f6c6964206f776e65720000000000000000000000000000000000000000000000602082015250565b7f45524337323155524953746f726167653a2055524920736574206f66206e6f6e60008201527f6578697374656e7420746f6b656e000000000000000000000000000000000000602082015250565b7f4974656d20697320616c7265616479206f6e2073616c65000000000000000000600082015250565b7f4552433732313a20617070726f76652063616c6c6572206973206e6f7420746f60008201527f6b656e206f776e6572206e6f7220617070726f76656420666f7220616c6c0000602082015250565b7f4552433732313a206d696e7420746f20746865207a65726f2061646472657373600082015250565b7f4f776e61626c653a2063616c6c6572206973206e6f7420746865206f776e6572600082015250565b7f4552433732313a20696e76616c696420746f6b656e2049440000000000000000600082015250565b7f4552433732313a20617070726f76616c20746f2063757272656e74206f776e6560008201527f7200000000000000000000000000000000000000000000000000000000000000602082015250565b7f5072696365206d75737420626520657175616c20746f206c697374696e67207060008201527f7269636500000000000000000000000000000000000000000000000000000000602082015250565b7f496e646578206f7574206f6620626f756e647300000000000000000000000000600082015250565b7f4552433732313a2063616c6c6572206973206e6f7420746f6b656e206f776e6560008201527f72206e6f7220617070726f766564000000000000000000000000000000000000602082015250565b7f5072696365206d757374206265206174206c6561737420312077656900000000600082015250565b61467a81613ee6565b811461468557600080fd5b50565b61469181613ef8565b811461469c57600080fd5b50565b6146a881613f04565b81146146b357600080fd5b50565b6146bf81613f50565b81146146ca57600080fd5b5056fea2646970667358221220ebb18c4d2f9b4e62b77658809d64e0ee27053b0bea2f72de31f10d20669655d964736f6c63430008010033",
  "immutableReferences": {},
  "source": "// SPDX-License-Identifier: MIT\npragma solidity >=0.4.22 <0.9.0;\n\nimport \"@openzeppelin/contracts/token/ERC721/extensions/ERC721URIStorage.sol\";\nimport \"@openzeppelin/contracts/utils/Counters.sol\";\nimport \"@openzeppelin/contracts/access/Ownable.sol\";\n\ncontract NftMarket is ERC721URIStorage, Ownable {\n    using Counters for Counters.Counter;\n\n    struct NftItem {\n        uint tokenId;\n        uint price;\n        address creator;\n        bool isListed;\n    }\n\n    uint public listingPrice = 0.025 ether;\n\n    Counters.Counter private _listedItems;\n    Counters.Counter private _tokenIds;\n\n    mapping(string => bool) private _usedTokenURIs;\n    mapping(uint => NftItem) private _idToNftItem;\n\n    mapping(address => mapping(uint => uint)) private _ownedTokens;\n    mapping(uint => uint) private _idToOwnedIndex;\n\n    uint256[] private _allNfts;\n    mapping(uint => uint) private _idToNftIndex;\n\n    event NftItemCreated (\n        uint tokenId,\n        uint price,\n        address creator,\n        bool isListed\n    );\n\n    constructor() ERC721(\"PumpkinNFT\", \"PNFT\") {}\n\n    function setListingPrice(uint newPrice) external onlyOwner {\n        require(newPrice > 0, \"Price must be at least 1 wei\");\n        listingPrice = newPrice;\n    }\n\n    function getNftItem(uint tokenId) public view returns (NftItem memory) {\n        return _idToNftItem[tokenId];\n    }\n\n    function listedItemsCount() public view returns (uint) {\n        return _listedItems.current();\n    }\n\n    function tokenURIExists(string memory tokenURI) public view returns (bool) {\n        return _usedTokenURIs[tokenURI] == true;\n    }\n\n    function totalSupply() public view returns (uint) {\n        return _allNfts.length;\n    }\n\n    function tokenByIndex(uint index) public view returns (uint) {\n        require(index < totalSupply(), \"Index out of bounds\");\n        return _allNfts[index];\n    }\n\n    function tokenOfOwnerByIndex(address owner, uint index) public view returns (uint) {\n        require(index < ERC721.balanceOf(owner), \"Index out of bounds\");\n        return _ownedTokens[owner][index];\n    }\n\n    function getAllNftsOnSale() public view returns (NftItem[] memory) {\n        uint allItemsCounts = totalSupply();\n        uint currentIndex = 0;\n        NftItem[] memory items = new NftItem[](_listedItems.current());\n\n        for (uint i = 0; i < allItemsCounts; i++) {\n            uint tokenId = tokenByIndex(i);\n            NftItem storage item = _idToNftItem[tokenId];\n\n            if (item.isListed == true) {\n                items[currentIndex] = item;\n                currentIndex += 1;\n            }\n        }\n\n        return items;\n    }\n\n    function getOwnedNfts() public view returns (NftItem[] memory) {\n        uint ownedItemsCount = ERC721.balanceOf(msg.sender);\n        NftItem[] memory items = new NftItem[](ownedItemsCount);\n\n        for (uint i = 0; i < ownedItemsCount; i++) {\n            uint tokenId = tokenOfOwnerByIndex(msg.sender, i);\n            NftItem storage item = _idToNftItem[tokenId];\n            items[i] = item;\n        }\n\n        return items;\n    }\n\n    function mintToken(string memory tokenURI, uint price) public payable returns (uint) {\n        require(!tokenURIExists(tokenURI), \"Token URI already exists\");\n        require(msg.value == listingPrice, \"Price must be equal to listing price\");\n\n        _tokenIds.increment();\n        _listedItems.increment();\n\n        uint newTokenId = _tokenIds.current();\n\n        _safeMint(msg.sender, newTokenId);\n        _setTokenURI(newTokenId, tokenURI);\n        _createNftItem(newTokenId, price);\n        _usedTokenURIs[tokenURI] = true;\n\n        return newTokenId;\n    }\n\n    function buyNft(\n        uint tokenId\n    ) public payable {\n        uint price = _idToNftItem[tokenId].price;\n        address owner = ERC721.ownerOf(tokenId);\n\n        require(msg.sender != owner, \"You already own this NFT\");\n        require(msg.value == price, \"Please submit the asking price\");\n\n        _idToNftItem[tokenId].isListed = false;\n        _listedItems.decrement();\n\n        _transfer(owner, msg.sender, tokenId);\n        payable(owner).transfer(msg.value);\n    }\n\n    function placeNftOnSale(uint tokenId, uint newPrice) public payable {\n        require(ERC721.ownerOf(tokenId) == msg.sender, \"You are not owner of this nft\");\n        require(_idToNftItem[tokenId].isListed == false, \"Item is already on sale\");\n        require(msg.value == listingPrice, \"Price must be equal to listing price\");\n\n        _idToNftItem[tokenId].isListed = true;\n        _idToNftItem[tokenId].price = newPrice;\n        _listedItems.increment();\n    }\n\n    function _createNftItem(\n        uint tokenId,\n        uint price\n    ) private {\n        require(price > 0, \"Price must be at least 1 wei\");\n\n        _idToNftItem[tokenId] = NftItem(\n            tokenId,\n            price,\n            msg.sender,\n            true\n        );\n\n        emit NftItemCreated(tokenId, price, msg.sender, true);\n    }\n\n    function _beforeTokenTransfer(\n        address from,\n        address to,\n        uint tokenId\n    ) internal virtual override {\n        super._beforeTokenTransfer(from, to, tokenId);\n\n        if (from == address(0)) {\n            _addTokenToAllTokensEnumeration(tokenId);\n        } else if (from != to) {\n            _removeTokenFromOwnerEnumeration(from, tokenId);\n        }\n\n        if (to == address(0)) {\n            _removeTokenFromAllTokensEnumeration(tokenId);\n        } else if (to != from) {\n            _addTokenToOwnerEnumeration(to, tokenId);\n        }\n    }\n\n    function _addTokenToAllTokensEnumeration(uint tokenId) private {\n        _idToNftIndex[tokenId] = _allNfts.length;\n        _allNfts.push(tokenId);\n    }\n\n    function _addTokenToOwnerEnumeration(address to, uint tokenId) private {\n        uint length = ERC721.balanceOf(to);\n        _ownedTokens[to][length] = tokenId;\n        _idToOwnedIndex[tokenId] = length;\n    }\n\n    function _removeTokenFromOwnerEnumeration(address from, uint tokenId) private {\n        uint lastTokenIndex = ERC721.balanceOf(from) - 1;\n        uint tokenIndex = _idToOwnedIndex[tokenId];\n\n        if (tokenIndex != lastTokenIndex) {\n            uint lastTokenId = _ownedTokens[from][lastTokenIndex];\n\n            _ownedTokens[from][tokenIndex] = lastTokenId;\n            _idToOwnedIndex[lastTokenId] = tokenIndex;\n        }\n\n        delete _idToOwnedIndex[tokenId];\n        delete _ownedTokens[from][lastTokenIndex];\n    }\n\n    function _removeTokenFromAllTokensEnumeration(uint tokenId) private {\n        uint lastTokenIndex = _allNfts.length - 1;\n        uint tokenIndex = _idToNftIndex[tokenId];\n        uint lastTokenId = _allNfts[lastTokenIndex];\n\n        _allNfts[tokenIndex] = lastTokenId;\n        _idToNftIndex[lastTokenId] = tokenIndex;\n\n        delete _idToNftIndex[tokenId];\n        _allNfts.pop();\n    }\n}",
  "sourcePath": "/home/igor/11_Ethereum/nft-market/contracts/NftMarket.sol",
  "compiler": {
    "name": "solc",
    "version": "0.8.1+commit.df193b15.Emscripten.clang"
  },
  "schemaVersion": "3.4.9",
  "updatedAt": "2022-10-10T23:08:25.805Z",
  "networkType": "ethereum",
  "devdoc": {
    "kind": "dev",
    "methods": {
      "approve(address,uint256)": {
        "details": "See {IERC721-approve}."
      },
      "balanceOf(address)": {
        "details": "See {IERC721-balanceOf}."
      },
      "getApproved(uint256)": {
        "details": "See {IERC721-getApproved}."
      },
      "isApprovedForAll(address,address)": {
        "details": "See {IERC721-isApprovedForAll}."
      },
      "name()": {
        "details": "See {IERC721Metadata-name}."
      },
      "owner()": {
        "details": "Returns the address of the current owner."
      },
      "ownerOf(uint256)": {
        "details": "See {IERC721-ownerOf}."
      },
      "renounceOwnership()": {
        "details": "Leaves the contract without owner. It will not be possible to call `onlyOwner` functions anymore. Can only be called by the current owner. NOTE: Renouncing ownership will leave the contract without an owner, thereby removing any functionality that is only available to the owner."
      },
      "safeTransferFrom(address,address,uint256)": {
        "details": "See {IERC721-safeTransferFrom}."
      },
      "safeTransferFrom(address,address,uint256,bytes)": {
        "details": "See {IERC721-safeTransferFrom}."
      },
      "setApprovalForAll(address,bool)": {
        "details": "See {IERC721-setApprovalForAll}."
      },
      "supportsInterface(bytes4)": {
        "details": "See {IERC165-supportsInterface}."
      },
      "symbol()": {
        "details": "See {IERC721Metadata-symbol}."
      },
      "tokenURI(uint256)": {
        "details": "See {IERC721Metadata-tokenURI}."
      },
      "transferFrom(address,address,uint256)": {
        "details": "See {IERC721-transferFrom}."
      },
      "transferOwnership(address)": {
        "details": "Transfers ownership of the contract to a new account (`newOwner`). Can only be called by the current owner."
      }
    },
    "version": 1
  },
  "userdoc": {
    "kind": "user",
    "methods": {},
    "version": 1
  }
}